S00F00004D61657374726F2E737265633A
S11300000C9434000C9451000C9451000C94510045
S11300100C9451000C9451000C9451000C94510018
S11300200C9451000C9451000C9451000C94510008
S11300300C9451000C9451000C9451000C945100F8
S11300400C9451000C9451000C9451000C945100E8
S11300500C9451000C9451000C9451000C945100D8
S11300600C9451000C94510011241FBECFEFD8E022
S1130070DEBFCDBF11E0A0E0B1E0E2E4FDE002C0EC
S113008005900D92AA33B107D9F721E0AAE3B1E0B4
S113009001C01D92A534B207E1F70E948E010C94B1
S11300A09F060C9400000F931F93CF938B019C0128
S11300B0C42F87B18F7C87B9443079F018F441306C
S11300C031F023C0403191F04034C9F01EC0E9EB57
S11300D0F0E080818C7F80831EC0E9EBF0E08081BA
S11300E08D7F808380818160808315C0E9EBF0E09F
S11300F080818E7F80838081826080830CC0E9EB65
S1130100F0E080818360808306C0E9EBF0E08081C9
S11301108C7F8083C1E060E074E284EF90E0A90109
S113012098010E942A03CA01B90160517109810929
S113013091094C2F50E09A01220F331F032E000C1B
S1130140440B550B0E942A032093B800ECEBF0E01B
S1130150808184608083CF911F910F91089584EAF8
S11301608093BC008091BC008823E4F7089584E95F
S11301708093BC0008958093BB0084E88093BC0006
S11301808091BC008823E4F78091B900887F88318E
S113019031F0883231F0803429F481E0089581E02F
S11301A0089581E0089585B1806185B985E08A95D7
S11301B0F1F7000085B18F7E85B987EC90E0019757
S11301C0F1F700C0000008959BB19F709BB995B1F1
S11301D0907F95B99BB140E1849F90011124292B14
S11301E02BB995B182958F70892B85B9089595B1F6
S11301F09F7D95B90E94E4000E94D3008FE39FE1A4
S11302000197F1F700C0000008958AB1806F8AB9A0
S113021084B18F6084B984B1806384B92FEF89EF8E
S113022090E0215080409040E1F700C0000080E35E
S11302300E94F7008FE19EE40197F1F700C00000EF
S113024080E30E94F7008FE891E00197F1F700C086
S1130250000080E30E94F70088E30E94F70088E032
S11302600E94F70081E00E94F70086E00E94F700F8
S11302708CE00E94F70008958111605C862F8068ED
S11302800E94F700089581E00E94F7008FE39FE148
S11302900197F1F700C00000089595B1906295B9F7
S11302A00E94E4000E94D30087EC90E00197F1F7EC
S11302B000C000000895CF93DF93EC0103C02196A2
S11302C00E944D0188818111FACFDF91CF91089569
S11302D09093C5008093C40088E18093C10086E0B8
S11302E08093C20008959091C00095FFFCCF809345
S11302F0C6000895CF93DF93EC0103C021960E94BA
S1130300730188818111FACFDF91CF910895809193
S1130310C0008823E4F78091C6000895CF93DF934B
S1130320CDB7DEB7E8970FB6F894DEBF0FBECDBFEA
S11303300E9405010E94430160E080E00E943C01AC
S113034080E091E00E945B012FEF87EA91E6215063
S113035080409040E1F700C0000087E690E00E94F2
S1130360680187B18F7C87B988B1806388B941E01F
S113037060E573EC80E090E00E945300EE24EA9480
S1130380DD24DA940E94AF0080E40E94BB0082E581
S11303900E94BB000E94B7008FE19EE40197F1F731
S11303A000C000000E94AF0081E40E94BB0084EC06
S11303B08093BC008091BC008823E4F70091BB00CB
S11303C084E88093BC008091BC008823E4F71091FA
S11303D0BB000E94B7000E94AF0080E60E94BB00F1
S11303E084E40E94BB000E94B7008FE19EE4019761
S11303F0F1F700C000000E94AF0081E60E94BB003C
S113040084E88093BC008091BC008823E4F7F090DA
S1130410BB000E94B7000E94AF0080E60E94BB00B0
S113042082E50E94BB000E94B7008FE19EE4019721
S1130430F1F700C000000E94AF0081E60E94BB00FB
S113044084E88093BC008091BC008823E4F70E9478
S1130450B7000E94AF0080E40E94BB008EE40E94BB
S1130460BB008FE40E94BB000E94B7008091C000D3
S11304708823C4F50E9487018A3011F08D3031F54C
S1130480E0914401F0E0E65CFE4F108242E050E06F
S11304906DE071E08AE391E00E946A03892B99F48C
S11304A08CE391E00E944C03E82ED92E0E94AF0009
S11304B080E60E94BB0085E40E94BB008E2D0E9452
S11304C0BB000E94B700109244010CC0E0914401AB
S11304D0E93040F491E09E0F90934401F0E0E65C33
S11304E0FE4F80830E94430160E080E00E943C0153
S11304F080E191E00E945B014AE0BE016F5F7F4FA3
S1130500802F90E00E947803CE0101960E945B0147
S11305108BE091E00E945B011A3020F483E191E0CA
S11305200E945B014AE0BE016F5F7F4F812F90E024
S11305300E947803CE0101960E945B0185E191E05F
S11305400E945B0160E081E00E943C0187E191E050
S11305500E945B014AE0BE016F5F7F4F8F2D90E0E8
S11305600E947803CE0101960E945B018AE191E02A
S11305700E945B014AE0BE016F5F7F4F8FE490E011
S11305800E947803CE0101960E945B016BE080E03B
S11305900E943C018DE091E00E945B014AE0BE01B3
S11305A06F5F7F4F8E2D9D2D0E947803CE010196A3
S11305B00E945B011F9284E18F931F9284E68F93C4
S11305C08EE191E09F938F938E010F5E1F4F1F93D7
S11305D00F930E94A503C8010E947A019FEF21EEA8
S11305E084E0915020408040E1F700C000001F9259
S11305F0FF928BE291E09F938F931F930F930E943E
S1130600A503C8010E947A019FEF21EE84E0915076
S113061020408040E1F700C000001F928FE48F93D8
S113062084E391E09F938F931F930F930E94A503FC
S1130630C8010E947A019FEF21EE84E0915020408E
S11306408040E1F700C000000FB6F894DEBF0FBE93
S1130650CDBF98CEA1E21A2EAA1BBB1BFD010DC073
S1130660AA1FBB1FEE1FFF1FA217B307E407F5075E
S113067020F0A21BB30BE40BF50B661F771F881F3A
S1130680991F1A9469F760957095809590959B01D0
S1130690AC01BD01CF010895FC0188279927E89496
S11306A021912032E9F3293010F02E30C8F32B3297
S11306B041F02D3239F4689404C00E948303820F00
S11306C0911D219120532A30C0F31EF490958195F9
S11306D09F4F0895FB01DC014150504030F08D9153
S11306E00190801919F40020B9F7881B990B08951B
S11306F0BB274A3031F4992322F4BDE290958195C9
S11307009F4F0C948C037AE0979F902D879F802DA8
S1130710910D11240895BB27FB015527AA27880FA3
S1130720991FAA1FA41710F0A41B83955051B9F761
S1130730A05DAA3308F0A95DA193009779F7B111E0
S1130740B1931192CB010C94BE05AEE0B0E0EBEA9C
S1130750F3E00C9476060D891E8986E08C831A8357
S113076009838FEF9FE79E838D83AE01475E5F4FC2
S11307706F89788DCE0101960E94C703EF81F885B9
S1130780E00FF11F10822E96E4E00C949206ABE089
S1130790B0E0EDECF3E00C9468066C017B018A0197
S11307A0FC0117821682838181FFCCC1CE010196A0
S11307B03C01F6019381F70193FD859193FF8191AB
S11307C07F01882309F4BAC1853239F493FD8591F8
S11307D093FF81917F01853229F4B60190E00E9454
S11307E0CE05E7CF912C212C312CFFE1F315D8F065
S11307F08B3279F038F4803279F08332A1F4232DEE
S113080020611DC08D3261F0803369F4232D216095
S113081016C0832D8260382EE32DE4603E2E2AC05C
S1130820F32DF8601DC037FC2DC020ED280F2A30B1
S113083040F08E32B9F436FC81C1232D2064322E6F
S113084019C036FE06C08AE0989E200D1124922E0F
S113085011C0EAE02E9E200D1124222EF32DF06209
S11308603F2E08C08C3621F4832D8068382E02C0B8
S1130870883641F4F70193FD859193FF81917F01BF
S11308808111B3CF982F9F7D9554933028F40C5F3A
S11308901F4F9FE399830DC0833631F0833771F086
S11308A0833509F059C021C0F801808189830E5F26
S11308B01F4F88248394912C530113C02801F2E024
S11308C04F0E511CF801A080B18036FE03C0692D83
S11308D070E002C06FEF7FEFC5010E94B3054C01C9
S11308E08201F32DFF773F2E16C0280122E0420E2D
S11308F0511CF801A080B18036FE03C0692D70E060
S113090002C06FEF7FEFC5010E94A8054C01F32DD3
S1130910F0683F2E820133FC1BC0822D90E08816C4
S11309209906B0F4B60180E290E00E94CE052A94C4
S1130930F4CFF50137FC859137FE81915F01B60153
S113094090E00E94CE0521102A9421E0821A910899
S11309508114910471F7E8C0843611F0893641F5A9
S1130960F80137FE07C060817181828193810C5F39
S11309701F4F08C060817181072E000C880B990BF2
S11309800E5F1F4FF32DFF763F2E97FF09C0909502
S11309908095709561957F4F8F4F9F4FF0683F2EE4
S11309A02AE030E0A3010E940A06882E861845C07A
S11309B0853731F4232D2F7EB22E2AE030E025C076
S11309C0932D997FB92E8F36C1F018F4883579F0BC
S11309D0B5C0803719F0883721F0B0C0E92FE06145
S11309E0BE2EB4FE0DC0FB2DF460BF2E09C034FE34
S11309F00AC0292F2660B22E06C028E030E005C0C8
S1130A0020E130E002C020E132E0F801B7FE07C087
S1130A1060817181828193810C5F1F4F06C0608168
S1130A20718180E090E00E5F1F4FA3010E940A06CF
S1130A30882E8618FB2DFF773F2E36FE0DC0232D02
S1130A402E7FA22E891458F434FE0BC032FC09C048
S1130A50832D8E7EA82E05C0B82CA32C03C0B82CE1
S1130A6001C0B92CA4FE0FC0FE01E80DF11D808168
S1130A70803321F49A2D997EA92E09C0A2FE06C0C6
S1130A80B394B39404C08A2D867809F0B394A3FC7C
S1130A9011C0A0FE06C0B21488F4280C922C9B1836
S1130AA00EC0B21460F4B60180E290E00E94CE055C
S1130AB0B394F7CFB21418F42B1802C0982C212C3D
S1130AC0A4FE10C0B60180E390E00E94CE05A2FE11
S1130AD017C0A1FC03C088E790E002C088E590E05D
S1130AE0B6010CC08A2D867859F0A1FE02C08BE2B3
S1130AF001C080E2A7FC8DE2B60190E00E94CE0521
S1130B00891438F4B60180E390E00E94CE059A94EB
S1130B10F7CF8A94F301E80DF11D8081B60190E0CE
S1130B200E94CE058110F5CF222009F442CEB601F1
S1130B3080E290E00E94CE052A94F6CFF6018681E9
S1130B40978102C08FEF9FEF2B96E2E10C9484060D
S1130B50FC010590615070400110D8F78095909584
S1130B608E0F9F1F0895FC01615070400190011089
S1130B70D8F7809590958E0F9F1F0895DC01FC0196
S1130B80672F71917723E1F7329704C07C916D93BD
S1130B9070836291AE17BF07C8F308950F931F9334
S1130BA0CF93DF93FB01238121FD03C08FEF9FEFE0
S1130BB02CC022FF16C046815781248135814217FB
S1130BC0530744F4A081B1819D012F5F3F4F3183CE
S1130BD020838C93268137812F5F3F4F3783268371
S1130BE014C08B01EC01FB010084F185E02D099513
S1130BF0892BE1F6D80116968D919C911797019651
S1130C0017969C938E931697CE01DF91CF911F91E7
S1130C100F910895FA01AA27283051F1203181F16A
S1130C20E8946F936E7F6E5F7F4F8F4F9F4FAF4FF0
S1130C30B1E03ED0B4E03CD0670F781F891F9A1F03
S1130C40A11D680F791F8A1F911DA11D6A0F711DB7
S1130C50811D911DA11D20D009F468943F912AE0C3
S1130C60269F11243019305D3193DEF6CF010895AB
S1130C70462F4770405D4193B3E00FD0C9F7F6CFDC
S1130C80462F4F70405D4A3318F0495D31FD4052A4
S1130C90419302D0A9F7EACFB4E0A695979587953A
S1130CA077956795BA95C9F7009761057105089519
S1130CB09B01AC010A2E06945795479537952795C5
S1130CC0BA95C9F7620F731F841F951FA01D08955D
S1130CD02F923F924F925F926F927F928F929F9248
S1130CE0AF92BF92CF92DF92EF92FF920F931F9336
S1130CF0CF93DF93CDB7DEB7CA1BDB0B0FB6F894E7
S1130D00DEBF0FBECDBF09942A88398848885F8426
S1130D106E847D848C849B84AA84B984C884DF8097
S1130D20EE80FD800C811B81AA81B981CE0FD11D7B
S1130D300FB6F894DEBF0FBECDBFED010895F89451
S1050D40FFCFDF
S1130D42496E696369616E646F2E2E2E00453A0006
S1130D52503A0030006700443A00204E3A00503ABC
S1130D6225642E2530326420670A00443A25642023
S10D0D72636D0A004E3A25640A007E
S9030000FC
