S00F00004D61657374726F2E737265633A
S11300000C9434000C9451000C9451000C94510045
S11300100C9451000C9451000C9451000C94510018
S11300200C9451000C9451000C9451000C94510008
S11300300C9451000C9451000C9451000C945100F8
S11300400C9451000C9451000C9451000C945100E8
S11300500C9451000C9451000C9451000C945100D8
S11300600C9451000C94510011241FBECFEFD8E022
S1130070DEBFCDBF12E0A0E0B1E0E8E8F2E102C0EB
S113008005900D92A834B107D9F722E0A8E4B2E0B4
S113009001C01D92AC36B207E1F70E948C030C94A8
S11300A042090C9400000F931F93CF938B019C0182
S11300B0C42F87B18F7C87B9443079F018F441306C
S11300C031F023C0403191F04034C9F01EC0E9EB57
S11300D0F0E080818C7F80831EC0E9EBF0E08081BA
S11300E08D7F808380818160808315C0E9EBF0E09F
S11300F080818E7F80838081826080830CC0E9EB65
S1130100F0E080818360808306C0E9EBF0E08081C9
S11301108C7F8083C1E060E074E284EF90E0A90109
S113012098010E94E405CA01B9016051710981096D
S113013091094C2F50E09A01220F331F032E000C1B
S1130140440B550B0E94E4052093B800ECEBF0E05F
S1130150808184608083CF911F910F91089584EAF8
S11301608093BC008091BC008823E4F7089584E95F
S11301708093BC0008958093BB0084E88093BC0006
S11301808091BC008823E4F78091B900887F88318E
S113019031F0883231F0803429F481E0089581E02F
S11301A0089581E00895DC01662331F0ECEBF0E082
S11301B090819064908305C0ECEBF0E090819F7B8C
S11301C09083ECEBF0E09081906890839091BC0078
S11301D09923E4F79091B900987F983511F0903500
S11301E029F48091BB008C9381E00895892F0895B0
S11301F085B1806185B985E08A95F1F7000085B104
S11302008F7E85B987EC90E00197F1F700C000007C
S113021008959BB19F709BB995B1907F95B99BB19F
S113022040E1849F90011124292B2BB995B182952B
S11302308F70892B85B9089595B19F7D95B90E94DA
S113024009010E94F8008FE39FE10197F1F700C0D4
S1130250000008958AB1806F8AB984B18F6084B92F
S113026084B1806384B92FEF89EF90E021508040FE
S11302709040E1F700C0000080E30E941C018FE180
S11302809EE40197F1F700C0000080E30E941C0186
S11302908FE891E00197F1F700C0000080E30E942D
S11302A01C0188E30E941C0188E00E941C0181E07B
S11302B00E941C0186E00E941C018CE00E941C012B
S11302C008958111605C862F80680E941C01089546
S11302D081E00E941C018FE39FE10197F1F700C0C8
S11302E00000089595B1906295B90E9409010E9499
S11302F0F80087EC90E00197F1F700C00000089542
S1130300CF93DF93EC0103C021960E947201888190
S11303108111FACFDF91CF9108959093C500809316
S1130320C40088E18093C10086E08093C2000895F0
S11303308091C0008823E4F78091C60008959091CD
S1130340C00095FFFCCF8093C6000895CF93DF9340
S1130350EC0103C021960E949F0188818111FACF8C
S1130360DF91CF910895CF93DF9370E01FC0C72F23
S1130370D0E09E01220F331FDA01A20FB31FC80F72
S1130380D91FE881E295EF70F0E0EA5CFD4FE0816F
S1130390EC932F5F3F4FDA01A20FB31FE881EF7098
S11303A0F0E0EA5CFD4F20812C937F5F7617F8F232
S11303B070E0660F771FFA01E60FF71F1082DF91D6
S11303C0CF910895CF93DF93EC0160E081E00E9428
S11303D0610188E091E00E948001CE010E948001C9
S11303E0DF91CF9108950F931F93CF93DF9300D0A4
S11303F000D000D0CDB7DEB79F938F938DE091E00E
S11304009F938F931F9286E08F938E010F5F1F4FF0
S11304101F930F930E944A0660E080E00E946101EE
S113042082E191E00E948001C8010E94800185E17F
S113043091E00E9480010FB6F894DEBF0FBECDBFDD
S113044026960FB6F894DEBF0FBECDBFDF91CF91D5
S11304501F910F9108950F931F93CF93DF9300D0B3
S113046000D000D0CDB7DEB7883E23E0920714F069
S113047087EE93E09F938F9388E191E09F938F930E
S11304801F9286E08F938E010F5F1F4F1F930F9370
S11304900E944A0667E080E00E9461018EE191E0DB
S11304A00E948001C8010E9480010FB6F894DEBF4B
S11304B00FBECDBF26960FB6F894DEBF0FBECDBFDC
S11304C0DF91CF911F910F9108950F931F93CF93B5
S11304D0DF9300D000D0CDB7DEB79F938F9381E236
S11304E091E09F938F931F9284E08F938E010F5F0F
S11304F01F4F1F930F930E944A066DE080E00E94F5
S1130500610184E291E00E948001C8010E9480019F
S11305100FB6F894DEBF0FBECDBF0F900F900F90B3
S11305200F90DF91CF911F910F910895EF92FF9259
S11305300F931F93CF937C018B010E94AF0080E443
S11305400E94BB00C82F82E50E94BB00C8230E9402
S1130550B700CC23F9F08FE19EE40197F1F700C0D6
S113056000000E94AF0081E40E94BB00811104C01E
S11305700E94B70080E00FC061E0C7010E94D30071
S1130580C82F60E0C8010E94D300C8230E94B700AE
S11305908C2F01C080E0CF911F910F91FF90EF90BD
S11305A008950F931F93CF93DF938C010E94AF00A4
S11305B080E60E94BB00C82F82E50E94BB00C823CE
S11305C00E94B700CC2329F18FE19EE40197F1F753
S11305D000C000000E94AF0081E60E94BB00D82F3B
S11305E0811110C00E94B70080E014C061E0C430E3
S11305F008F060E0C8018C0F911D0E94D300D8233D
S1130600CF5F01C0C0E0C53088F30E94B7008D2FD2
S113061001C080E0DF91CF911F910F9108950F9356
S11306201F93CF93DF938C01C0E0D0E04DC0FE0157
S1130630EE0FFF1FEC5FFE4F60817181C8010E94C5
S11306402406892B09F03FC00E94AF0080E60E9477
S1130650BB00C82FC17084E50E94BB00C8230E9460
S1130660B700C11113C00E94680160E080E00E94DD
S1130670610187E291E00E9480012FEF8BE792E90C
S1130680215080409040E1F700C000000E946801C2
S113069060E080E00E9461018BE391E00E948001B0
S11306A060E081E00E94610189E491E00E948001A0
S11306B02FEF8BE792E9215080409040E1F700C092
S11306C00000C1E006C02196C230D1050CF4AFCFC2
S11306D0C0E0C1111BC00E94680160E080E00E947C
S11306E0610187E591E00E94800160E081E00E9461
S11306F0610182E691E00E9480012FEF8FE097E292
S1130700215080409040E1F700C000008C2FDF9121
S1130710CF911F910F910895CF93DF93CDB7DEB79B
S1130720ED970FB6F894DEBF0FBECDBF19821A82C3
S1130730FE01339685E0DF011D928A95E9F71C8A54
S11307401B8A729689E0DF011D928A95E9F70E945F
S11307502A010E94680160E080E00E9461018AE64B
S113076091E00E948001BFEF2FE087E2B15020406A
S11307708040E1F700C0000087E690E00E948D0110
S113078087B18D7C87B988B1826388B941E060E51F
S113079073EC80E090E00E9453000E94910588234E
S11307A0C1F087E791E00E94A6010E94680160E021
S11307B080E00E94610183EA91E00E94800160E090
S11307C081E00E94610182EB91E00E94800110E0CF
S11307D005C081EC91E00E94A601FFCFBE016E5FCF
S11307E07F4FCE0101960E949602898190E00E947B
S11307F0F3010E94DF050E94BF0584569109893EDA
S1130800A3E09A0714F080E090E020916802309110
S11308106902AC01421B530B9A0122F422273327AD
S1130820241B350B2B30310524F0909369028093FF
S1130830680280916802909169020E942B02CE01A5
S113084003960E94D102AE01485F5F4F65E0CE017E
S113085003960E94B301BE016D5E7F4FCE010896E0
S11308600E942406892B81F0CE0108960E940F0372
S1130870882311F011E001C010E0BE01685F7F4FD2
S1130880CE0143960E942D06CE0108960E94E201F5
S113089080916A0290916B020E946502112309F40F
S11308A090C031998EC00E94680160E080E00E948F
S11308B0610183EF91E00E94800110E000E0C12C0F
S11308C0D12C760141C0BFEF20E782E0B150204037
S11308D08040E1F700C000002CC00E9498018A30DB
S11308E0E1F4EEE1F0E0EC0FFD1FE10FF11D1082E9
S11308F042E050E064E271E0CE014E960E9434067C
S1130900892BB1F4CE0180960E94060690936B0267
S113091080936A0210E001E010C01F3150F4EEE150
S1130920F0E0EC0FFD1FE10FF11D80831F5F01C09C
S113093010E08091C000882384F201110DC092E37D
S1130940C90ED11CE11CF11CA0E7CA16A7E1DA0606
S1130950E104F10408F4B7CF011113C00E94680147
S113096060E080E00E94610186E092E00E948001E4
S1130970BFEF2FE087E2B15020408040E1F700C094
S113098000000E94680160E080E00E94610183EA47
S113099091E00E94800160E081E00E94610182EBAD
S11309A091E00E9480018FEF9FEF90930301809369
S11309B0020190930101809300011092480210E01B
S11309C070C08981482F50E02091020130910301C9
S11309D042175307F9F01F928F9381E192E09F939E
S11309E08F931F9280E18F937E019EE1E90EF11CAB
S11309F0FF92EF920E944A06C7010E94A6018981D4
S1130A0090E090930301809302010FB6F894DEBF47
S1130A100FBECDBF809168029091690220910001C0
S1130A20309101018217930709F19F938F9387E116
S1130A3092E09F938F931F928CE08F937E01BEE18F
S1130A40EB0EF11CFF92EF920E944A06C7010E942E
S1130A50A6018091680290916902909301018093AC
S1130A6000010FB6F894DEBF0FBECDBF68E472E09C
S1130A70CE0108960E942406892B99F08DE192E01C
S1130A800E94A601CE0108960E94A60181EF91E082
S1130A900E94A601BE01685F7F4F88E492E00E9435
S1130AA02D069FEFA5EABEE09150A040B040E1F7CB
S1130AB000C0000093CE1F93CF93DF931F92CDB756
S1130AC0DEB7182F19820E94AF0082E50E94BB0096
S1130AD0812F0E94BB000E94AF0083E50E94BB00EF
S1130AE060E0CE0101960E94D3000E94B700898184
S1130AF00F90DF91CF911F910895CF93DF93D82F5B
S1130B00C62F0E94AF0082E50E94BB008D2F0E9479
S1130B10BB008C2F0E94BB000E94B700DF91CF91D5
S1130B20089580EC0E945B058E3E11F561E080E83B
S1130B300E947D0561E08FEF0E947D0560E080E00A
S1130B400E947D056CE381E90E947D0561E080E0FF
S1130B500E947D0560E08FEF0E947D0560E080E8E3
S1130B600E947D0562E080E00E947D0581E0089599
S1130B7080E0089584E10E945B0581700895CF931D
S1130B80DF9306C089EF90E00197F1F700C0000001
S1130B900E94BA058823B1F38EE10E945B05C82F39
S1130BA08FE10E945B05D0E0DC2FCC27C82B61E0ED
S1130BB083E10E947D05CE01DF91CF91089561E02C
S1130BC080E00E947D050895A1E21A2EAA1BBB1B9A
S1130BD0FD010DC0AA1FBB1FEE1FFF1FA217B30705
S1130BE0E407F50720F0A21BB30BE40BF50B661F1B
S1130BF0771F881F991F1A9469F7609570958095DF
S1130C0090959B01AC01BD01CF010895FC0188279B
S1130C109927E89421912032E9F3293010F02E30FD
S1130C20C8F32B3241F02D3239F4689404C00E9489
S1130C304206820F911D219120532A30C0F31EF4E5
S1130C40909581959F4F0895FB01DC018D91019052
S1130C5080190110D9F3990B0895FB01DC0101906F
S1130C600D920020E1F70895FB01DC014150504052
S1130C7030F08D910190801919F40020B9F7881B88
S1130C80990B08957AE0979F902D879F802D910D61
S1130C9011240895AEE0B0E0E0E5F6E00C94190903
S1130CA00D891E898F89988D26E02C831A830983E8
S1130CB097FF02C080E090E801979E838D83AE0188
S1130CC0455E5F4F698D7A8DCE0101960E947A064A
S1130CD04D815E8157FD0AC02F8138854217530725
S1130CE00CF49A01F801E20FF31F10822E96E4E04F
S1130CF00C943509ABE0B0E0E0E8F6E00C940B09A5
S1130D006C017B018A01FC0117821682838181FFB9
S1130D10CCC1CE0101963C01F6019381F70193FD0C
S1130D20859193FF81917F01882309F4BAC18532AB
S1130D3039F493FD859193FF81917F01853229F4E4
S1130D40B60190E00E947108E7CF912C212C312C40
S1130D50FFE1F315D8F08B3279F038F4803279F072
S1130D608332A1F4232D20611DC08D3261F08033C4
S1130D7069F4232D216016C0832D8260382EE32D63
S1130D80E4603E2E2AC0F32DF8601DC037FC2DC050
S1130D9020ED280F2A3040F08E32B9F436FC81C1A0
S1130DA0232D2064322E19C036FE06C08AE0989E98
S1130DB0200D1124922E11C0EAE02E9E200D112444
S1130DC0222EF32DF0623F2E08C08C3621F4832DA1
S1130DD08068382E02C0883641F4F70193FD85916E
S1130DE093FF81917F018111B3CF982F9F7D9554FB
S1130DF0933028F40C5F1F4F9FE399830DC0833613
S1130E0031F0833771F0833509F059C021C0F801FE
S1130E10808189830E5F1F4F88248394912C530112
S1130E2013C02801F2E04F0E511CF801A080B180DC
S1130E3036FE03C0692D70E002C06FEF7FEFC5017D
S1130E400E9466084C018201F32DFF773F2E16C0E5
S1130E50280122E0420E511CF801A080B18036FE28
S1130E6003C0692D70E002C06FEF7FEFC5010E94DF
S1130E705B084C01F32DF0683F2E820133FC1BC04C
S1130E80822D90E088169906B0F4B60180E290E0D5
S1130E900E9471082A94F4CFF50137FC859137FE3E
S1130EA081915F01B60190E00E94710821102A949B
S1130EB021E0821A91088114910471F7E8C0843604
S1130EC011F0893641F5F80137FE07C06081718160
S1130ED0828193810C5F1F4F08C060817181072E4E
S1130EE0000C880B990B0E5F1F4FF32DFF763F2EDE
S1130EF097FF09C090958095709561957F4F8F4FAE
S1130F009F4FF0683F2E2AE030E0A3010E94AD0815
S1130F10882E861845C0853731F4232D2F7EB22EB6
S1130F202AE030E025C0932D997FB92E8F36C1F089
S1130F3018F4883579F0B5C0803719F0883721F076
S1130F40B0C0E92FE061BE2EB4FE0DC0FB2DF460ED
S1130F50BF2E09C034FE0AC0292F2660B22E06C057
S1130F6028E030E005C020E130E002C020E132E0BA
S1130F70F801B7FE07C060817181828193810C5FA3
S1130F801F4F06C06081718180E090E00E5F1F4FAB
S1130F90A3010E94AD08882E8618FB2DFF773F2EF3
S1130FA036FE0DC0232D2E7FA22E891458F434FE54
S1130FB00BC032FC09C0832D8E7EA82E05C0B82C30
S1130FC0A32C03C0B82C01C0B92CA4FE0FC0FE0191
S1130FD0E80DF11D8081803321F49A2D997EA92E8C
S1130FE009C0A2FE06C0B394B39404C08A2D8678C7
S1130FF009F0B394A3FC11C0A0FE06C0B21488F497
S1131000280C922C9B180EC0B21460F4B60180E236
S113101090E00E947108B394F7CFB21418F42B181F
S113102002C0982C212CA4FE10C0B60180E390E0ED
S11310300E947108A2FE17C0A1FC03C088E790E0DB
S113104002C088E590E0B6010CC08A2D867859F07C
S1131050A1FE02C08BE201C080E2A7FC8DE2B601D2
S113106090E00E947108891438F4B60180E390E09E
S11310700E9471089A94F7CF8A94F301E80DF11D48
S11310808081B60190E00E9471088110F5CF222082
S113109009F442CEB60180E290E00E9471082A94DD
S11310A0F6CFF6018681978102C08FEF9FEF2B96D2
S11310B0E2E10C942709FC01059061507040011095
S11310C0D8F7809590958E0F9F1F0895FC0161506D
S11310D0704001900110D8F7809590958E0F9F1F56
S11310E008950F931F93CF93DF93FB01238121FD79
S11310F003C08FEF9FEF2CC022FF16C0468157819B
S1131100248135814217530744F4A081B1819D01A4
S11311102F5F3F4F318320838C93268137812F5F4C
S11311203F4F3783268314C08B01EC01FB010084FD
S1131130F185E02D0995892BE1F6D80116968D915C
S11311409C911797019617969C938E931697CE01B0
S1131150DF91CF911F910F910895FA01AA272830AA
S113116051F1203181F1E8946F936E7F6E5F7F4F70
S11311708F4F9F4FAF4FB1E03ED0B4E03CD0670FEC
S1131180781F891F9A1FA11D680F791F8A1F911D3F
S1131190A11D6A0F711D811D911DA11D20D009F48F
S11311A068943F912AE0269F11243019305D3193D1
S11311B0DEF6CF010895462F4770405D4193B3E0BA
S11311C00FD0C9F7F6CF462F4F70405D4A3318F061
S11311D0495D31FD4052419302D0A9F7EACFB4E012
S11311E0A6959795879577956795BA95C9F70097CA
S11311F06105710508959B01AC010A2E069457956B
S1131200479537952795BA95C9F7620F731F841FC1
S1131210951FA01D08952F923F924F925F926F9257
S11312207F928F929F92AF92BF92CF92DF92EF9272
S1131230FF920F931F93CF93DF93CDB7DEB7CA1BF3
S1131240DB0B0FB6F894DEBF0FBECDBF09942A881E
S1131250398848885F846E847D848C849B84AA84C6
S1131260B984C884DF80EE80FD800C811B81AA8153
S1131270B981CE0FD11D0FB6F894DEBF0FBECDBF1E
S10B1280ED010895F894FFCF7D
S1131288FFFFFFFF20022B024E46433A002530336E
S11312986400503A00672000253033642000443A43
S11312A800256400453A004572726F7220656E200D
S11312B874616C616E717565726100536920617542
S11312C8746F72697A61646F005061736520616438
S11312D8656C616E74650054616C616E71756572DC
S11312E861006365727261646100496E6963696172
S11312F86E646F2E2E2E0053656E736F7220564CDB
S113130835334C305820696E696369616C697A6158
S1131318646F20636F7272656374616D656E746562
S11313280D0A00503A2D2D6720443A2D2D20453AB8
S11313382D004E46433A2D2D2D2D2D2D2D2D2D2DA1
S1131348004552524F523A204E6F207365207075F3
S1131358646F20696E696369616C697A617220657A
S11313686C2073656E736F7220564C35334C30584D
S11313780D0A004573706572616E646F2076616C46
S11313886F722E2E2E0054696D656F757420367336
S113139800503A25640A00443A25640A004E3A008B
S11313A839414136384430324233003333353333EC
S11313B83433343630003031323334353637383913
S10B13C8414243444546000084
S9030000FC
