:100000000C9434000C9449000C9449000C94490061
:100010000C9449000C9449000C9449000C9449003C
:100020000C9449000C9449000C9449000C9449002C
:100030000C9449000C9449000C9449000C9449001C
:100040000C9449000C9449000C9449000C9449000C
:100050000C9449000C9449000C9449000C944900FC
:100060000C9449000C94490011241FBECFEFD8E036
:10007000DEBFCDBF11E0A0E0B1E0ECE8FFE002C0E0
:1000800005900D92AC38B107D9F70E94F9020C9493
:10009000C4070C9400000F931F93CF938B019C0116
:1000A000C42F87B18F7C87B9443079F018F4413080
:1000B00031F023C0403191F04034C9F01EC0E9EB6B
:1000C000F0E080818C7F80831EC0E9EBF0E08081CE
:1000D0008D7F808380818160808315C0E9EBF0E0B3
:1000E00080818E7F80838081826080830CC0E9EB79
:1000F000F0E080818360808306C0E9EBF0E08081DE
:100100008C7F8083C1E060E074E284EF90E0A9011D
:1001100098010E943804CA01B9016051710981092E
:1001200091094C2F50E09A01220F331F032E000C2F
:10013000440B550B0E9438042093B800ECEBF0E020
:10014000808184608083CF911F910F91089584EA0C
:100150008093BC008091BC008823E4F7089584E973
:100160008093BC0008958093BB0084E88093BC001A
:100170008091BC008823E4F78091B900887F8831A2
:1001800031F0883231F0803429F481E0089581E043
:10019000089581E00895DC01662331F0ECEBF0E096
:1001A00090819064908305C0ECEBF0E090819F7BA0
:1001B0009083ECEBF0E09081906890839091BC008C
:1001C0009923E4F79091B900987F983511F0903514
:1001D00029F48091BB008C9381E00895892F0895C4
:1001E00085B1806185B985E08A95F1F7000085B118
:1001F0008F7E85B987EC90E00197F1F700C0000091
:1002000008959BB19F709BB995B1907F95B99BB1B3
:1002100040E1849F90011124292B2BB995B182953F
:100220008F70892B85B9089595B19F7D95B90E94EE
:1002300001010E94F0008FE39FE10197F1F700C0F8
:10024000000008958AB1806F8AB984B18F6084B943
:1002500084B1806384B92FEF89EF90E02150804012
:100260009040E1F700C0000080E30E9414018FE19C
:100270009EE40197F1F700C0000080E30E941401A2
:100280008FE891E00197F1F700C0000080E30E9441
:10029000140188E30E94140188E00E94140181E0A7
:1002A0000E94140186E00E9414018CE00E94140157
:1002B00008958111605C862F80680E941401089562
:1002C00081E00E9414018FE39FE10197F1F700C0E4
:1002D0000000089595B1906295B90E9401010E94B5
:1002E000F00087EC90E00197F1F700C0000008955E
:1002F000CF93DF93EC0103C021960E946A018881AD
:100300008111FACFDF91CF9108959093C50080932A
:10031000C40088E18093C10086E08093C200089504
:100320008091C0008823E4F78091C60008959091E1
:10033000C00095FFFCCF8093C6000895CF93DF9354
:10034000EC0103C021960E94970188818111FACFA8
:10035000DF91CF910895CF93DF9370E01FC0C72F37
:10036000D0E09E01220F331FDA01A20FB31FC80F86
:10037000D91FE881E295EF70F0E0E658FE4FE0818A
:10038000EC932F5F3F4FDA01A20FB31FE881EF70AC
:10039000F0E0E658FE4F20812C937F5F7617F8F24D
:1003A00070E0660F771FFA01E60FF71F1082DF91EA
:1003B000CF91089580E090E00895CF93C82F0E94D8
:1003C000A70080E40E94B3008C2F0E94B3000E941B
:1003D000AF00CF9108950F931F93CF93DF93CDB7C5
:1003E000DEB728970FB6F894DEBF0FBECDBF082F3B
:1003F000162F60E080E00E94590180E091E00E94A9
:1004000078014AE0BE016F5F7F4F802F90E00E942D
:100410008F04CE0101960E9478018DE191E00E9447
:1004200078011A3020F483E091E00E9478014AE0DC
:10043000BE016F5F7F4F812F90E00E948F04CE013D
:1004400001960E94780185E091E00E94780128964B
:100450000FB6F894DEBF0FBECDBFDF91CF911F91D5
:100460000F9108950F931F93CF93DF9300D000D087
:1004700000D0CDB7DEB78C016BE080E00E9459015F
:100480008AE091E00E9478014AE0BE016F5F7F4FF1
:10049000C8010E948F04CE0101960E94780188E075
:1004A00091E00E94780126960FB6F894DEBF0FBE49
:1004B000CDBFDF91CF911F910F910895CF93DF931F
:1004C000EC0160E081E00E9459018DE091E00E9422
:1004D0007801CE010E947801FE0101900020E9F729
:1004E0003197EC1BFD0BC4E0CE0F05C088E091E016
:1004F0000E947801CF5FC031C8F3DF91CF9108959A
:10050000EF92FF920F931F93CF937C018B010E9478
:10051000A70080E40E94B300C82F82E50E94B300C8
:10052000C8230E94AF00CC23F9F08FE19EE401972D
:10053000F1F700C000000E94A70081E40E94B30010
:10054000811104C00E94AF0080E00FC061E0C701CC
:100550000E94CB00C82F60E0C8010E94CB00C823D6
:100560000E94AF008C2F01C080E0CF911F910F91AE
:10057000FF90EF9008950F931F93CF93DF938C011B
:100580000E94A70080E60E94B300C82F82E50E9467
:10059000B300C8230E94AF00CC2329F18FE19EE471
:1005A0000197F1F700C000000E94A70081E60E94B9
:1005B000B300D82F811110C00E94AF0080E014C09A
:1005C00061E0C43008F060E0C8018C0F911D0E940A
:1005D000CB00D823CF5F01C0C0E0C53088F30E94B4
:1005E000AF008D2F01C080E0DF91CF911F910F915F
:1005F0000895CF93DF93CDB7DEB7EA970FB6F8949F
:10060000DEBF0FBECDBF19821A82FE01339685E090
:10061000DF011D928A95E9F70E9422010E94600184
:1006200060E080E00E94590182E191E00E9478013F
:10063000BFEF2FE087E2B15020408040E1F700C0DB
:10064000000087E690E00E94850187B18F7C87B922
:1006500088B1806388B941E060E573EC80E090E0A8
:100660000E944B000E94600160E080E00E945901FE
:100670008FE191E00E94780160E081E00E945901E1
:100680008DE291E00E94780110E08091C000882303
:100690000CF0E7C00E9490018A3019F08D3009F00B
:1006A000D6C0E3E1F0E0EC0FFD1FE10FF11D108279
:1006B0006CE371E0CE0143960E947804892B79F5B2
:1006C000BE016E5F7F4FCE0101960E94800288239B
:1006D00009F18A811F928F9389811F928F938FE3F3
:1006E00091E09F938F931F9280E18F938E01055D20
:1006F0001F4F1F930F930E94BC04C8010E949E01CC
:100700006A8189810E94EB010FB6F894DEBF0FBEAB
:10071000CDBF9AC08AE491E00E949E0195C061E538
:1007200071E0CE0143960E947804892B21F5CE0119
:1007300003960E94BB028823C9F0AE01485F5F4F59
:1007400065E0CE0103960E94AB0184E591E00E9432
:100750009E01CE0108960E949E0188E791E00E94CA
:100760009E01CE0108960E945E026EC087E591E070
:100770000E949E0169C06EE571E0CE0143960E9421
:100780007804892BD9F40E94DA019F938F9381E634
:1007900091E09F938F931F928CE08F938E01055D64
:1007A0001F4F1F930F930E94BC04C8010E949E011B
:1007B0000FB6F894DEBF0FBECDBF46C042E050E09A
:1007C0006AE071E0CE0143960E948104892B81F595
:1007D000CE0145960E945A048C010E9432020E946A
:1007E000DA01801791072CF00817190724F013E598
:1007F00003C015E501C014E4812F0E94DD011F92A2
:100800001F9387E691E09F938F931F928CE08F93C5
:100810008E01055D1F4F1F930F930E94BC04C801FA
:100820000E949E010FB6F894DEBF0FBECDBF0CC074
:100830006FE671E0CE0143960E947804892B21F483
:1008400084E791E00E949E011B8A10E00AC01731E4
:1008500040F4E3E1F0E0EC0FFD1FE10FF11D8083B8
:100860001F5F8FE39CE90197F1F700C000000DCFF7
:10087000A1E21A2EAA1BBB1BFD010DC0AA1FBB1FA4
:10088000EE1FFF1FA217B307E407F50720F0A21B16
:10089000B30BE40BF50B661F771F881F991F1A9483
:1008A00069F760957095809590959B01AC01BD01AD
:1008B000CF010895FC0188279927E89421912032DF
:1008C000E9F3293010F02E30C8F32B3241F02D32ED
:1008D00039F4689404C00E949A04820F911D2191FA
:1008E00020532A30C0F31EF4909581959F4F0895B0
:1008F000FB01DC018D91019080190110D9F3990B56
:100900000895FB01DC014150504030F08D91019081
:10091000801919F40020B9F7881B990B0895BB279B
:100920004A3031F4992322F4BDE2909581959F4F8E
:100930000C94A3047AE0979F902D879F802D910DB2
:1009400011240895BB27FB015527AA27880F991F5B
:10095000AA1FA41710F0A41B83955051B9F7A05DEE
:10096000AA3308F0A95DA193009779F7B111B1936B
:100970001192CB010C94E306AEE0B0E0E2ECF4E0BF
:100980000C949B070D891E898F89988D26E02C83F6
:100990001A83098397FF02C080E090E801979E8345
:1009A0008D83AE01455E5F4F698D7A8DCE010196D4
:1009B0000E94EC044D815E8157FD0AC02F8138856D
:1009C000421753070CF49A01F801E20FF31F10824B
:1009D0002E96E4E00C94B707ABE0B0E0E2EFF4E071
:1009E0000C948D076C017B018A01FC011782168231
:1009F000838181FFCCC1CE0101963C01F601938138
:100A0000F70193FD859193FF81917F01882309F47C
:100A1000BAC1853239F493FD859193FF81917F01AD
:100A2000853229F4B60190E00E94F306E7CF912CBD
:100A3000212C312CFFE1F315D8F08B3279F038F40A
:100A4000803279F08332A1F4232D20611DC08D32D4
:100A500061F0803369F4232D216016C0832D8260FC
:100A6000382EE32DE4603E2E2AC0F32DF8601DC021
:100A700037FC2DC020ED280F2A3040F08E32B9F41B
:100A800036FC81C1232D2064322E19C036FE06C0EB
:100A90008AE0989E200D1124922E11C0EAE02E9E2D
:100AA000200D1124222EF32DF0623F2E08C08C362B
:100AB00021F4832D8068382E02C0883641F4F70176
:100AC00093FD859193FF81917F018111B3CF982F81
:100AD0009F7D9554933028F40C5F1F4F9FE39983BB
:100AE0000DC0833631F0833771F0833509F059C07A
:100AF00021C0F801808189830E5F1F4F8824839471
:100B0000912C530113C02801F2E04F0E511CF80143
:100B1000A080B18036FE03C0692D70E002C06FEF87
:100B20007FEFC5010E94D8064C018201F32DFF77AB
:100B30003F2E16C0280122E0420E511CF801A08071
:100B4000B18036FE03C0692D70E002C06FEF7FEF09
:100B5000C5010E94CD064C01F32DF0683F2E8201A5
:100B600033FC1BC0822D90E088169906B0F4B601C4
:100B700080E290E00E94F3062A94F4CFF50137FC5E
:100B8000859137FE81915F01B60190E00E94F306E6
:100B900021102A9421E0821A91088114910471F79E
:100BA000E8C0843611F0893641F5F80137FE07C0F8
:100BB00060817181828193810C5F1F4F08C06081C9
:100BC0007181072E000C880B990B0E5F1F4FF32DC0
:100BD000FF763F2E97FF09C090958095709561959F
:100BE0007F4F8F4F9F4FF0683F2E2AE030E0A301E8
:100BF0000E942F07882E861845C0853731F4232D93
:100C00002F7EB22E2AE030E025C0932D997FB92E99
:100C10008F36C1F018F4883579F0B5C0803719F0F7
:100C2000883721F0B0C0E92FE061BE2EB4FE0DC0C0
:100C3000FB2DF460BF2E09C034FE0AC0292F2660A8
:100C4000B22E06C028E030E005C020E130E002C04E
:100C500020E132E0F801B7FE07C060817181828136
:100C600093810C5F1F4F06C06081718180E090E02E
:100C70000E5F1F4FA3010E942F07882E8618FB2DA1
:100C8000FF773F2E36FE0DC0232D2E7FA22E891416
:100C900058F434FE0BC032FC09C0832D8E7EA82E82
:100CA00005C0B82CA32C03C0B82C01C0B92CA4FEDD
:100CB0000FC0FE01E80DF11D8081803321F49A2DD3
:100CC000997EA92E09C0A2FE06C0B394B39404C0B5
:100CD0008A2D867809F0B394A3FC11C0A0FE06C04B
:100CE000B21488F4280C922C9B180EC0B21460F435
:100CF000B60180E290E00E94F306B394F7CFB214FD
:100D000018F42B1802C0982C212CA4FE10C0B60198
:100D100080E390E00E94F306A2FE17C0A1FC03C08E
:100D200088E790E002C088E590E0B6010CC08A2D0B
:100D3000867859F0A1FE02C08BE201C080E2A7FCD8
:100D40008DE2B60190E00E94F306891438F4B601F2
:100D500080E390E00E94F3069A94F7CF8A94F3011F
:100D6000E80DF11D8081B60190E00E94F30681102C
:100D7000F5CF222009F442CEB60180E290E00E9435
:100D8000F3062A94F6CFF6018681978102C08FEF91
:100D90009FEF2B96E2E10C94A907FC0105906150AE
:100DA00070400110D8F7809590958E0F9F1F089581
:100DB000FC016150704001900110D8F7809590952A
:100DC0008E0F9F1F0895DC01FC01672F719177231F
:100DD000E1F7329704C07C916D9370836291AE17F6
:100DE000BF07C8F308950F931F93CF93DF93FB01C1
:100DF000238121FD03C08FEF9FEF2CC022FF16C07F
:100E000046815781248135814217530744F4A081DC
:100E1000B1819D012F5F3F4F318320838C932681C9
:100E200037812F5F3F4F3783268314C08B01EC013E
:100E3000FB010084F185E02D0995892BE1F6D801AD
:100E400016968D919C911797019617969C938E9369
:100E50001697CE01DF91CF911F910F910895FA015E
:100E6000AA27283051F1203181F1E8946F936E7FE9
:100E70006E5F7F4F8F4F9F4FAF4FB1E03ED0B4E0DA
:100E80003CD0670F781F891F9A1FA11D680F791F1B
:100E90008A1F911DA11D6A0F711D811D911DA11D2C
:100EA00020D009F468943F912AE0269F112430193C
:100EB000305D3193DEF6CF010895462F4770405DD7
:100EC0004193B3E00FD0C9F7F6CF462F4F70405D86
:100ED0004A3318F0495D31FD4052419302D0A9F7E1
:100EE000EACFB4E0A6959795879577956795BA95DB
:100EF000C9F700976105710508959B01AC010A2EA1
:100F000006945795479537952795BA95C9F7620F77
:100F1000731F841F951FA01D08952F923F924F921B
:100F20005F926F927F928F929F92AF92BF92CF9279
:100F3000DF92EF92FF920F931F93CF93DF93CDB782
:100F4000DEB7CA1BDB0B0FB6F894DEBF0FBECDBFFA
:100F500009942A88398848885F846E847D848C84CB
:100F60009B84AA84B984C884DF80EE80FD800C81D4
:100F70001B81AA81B981CE0FD11D0FB6F894DEBFB7
:0C0F80000FBECDBFED010895F894FFCF27
:100F8C00503A0030006720202000453A004E46437E
:100F9C003A00496E696369616E646F2E2E2E0050A3
:100FAC003A2D2D2E2D2D672020453A2D004E4643EF
:100FBC003A2D2D2D2D2D2D2D2D2D2D00503F00504A
:100FCC003A25642E253032640A00503A4552520AB2
:100FDC00004E3F004E3A004E3A4552520A00443FF2
:100FEC0000443A25640A00434D443A25630A0050F4
:100FFC00494E4700504F4E470A003031323334359A
:0C100C0036373839414243444546000065
:00000001FF
