S01800005072756562615F64697374616E6369612E737265639E
S11300000C9434000C9449000C9449000C9449005D
S11300100C9449000C9449000C9449000C94490038
S11300200C9449000C9449000C9449000C94490028
S11300300C9449000C9449000C9449000C94490018
S11300400C9449000C9449000C9449000C94490008
S11300500C9449000C9449000C9449000C944900F8
S11300600C9449000C94490011241FBECFEFD8E032
S1130070DEBFCDBF11E0A0E0B1E0EAE8F8E002C0E5
S113008005900D92AA32B107D9F70E94F4000C949E
S113009043040C9400000F931F93CF938B019C0196
S11300A0C42F87B18F7C87B9443079F018F441307C
S11300B031F023C0403191F04034C9F01EC0E9EB67
S11300C0F0E080818C7F80831EC0E9EBF0E08081CA
S11300D08D7F808380818160808315C0E9EBF0E0AF
S11300E080818E7F80838081826080830CC0E9EB75
S11300F0F0E080818360808306C0E9EBF0E08081DA
S11301008C7F8083C1E060E074E284EF90E0A90119
S113011098010E943701CA01B9016051710981092E
S113012091094C2F50E09A01220F331F032E000C2B
S1130130440B550B0E9437012093B800ECEBF0E020
S1130140808184608083CF911F910F91089584EA08
S11301508093BC008091BC008823E4F7089584E96F
S11301608093BC0008958093BB0084E88093BC0016
S11301708091BC008823E4F78091B900887F88319E
S113018031F0883231F0803429F481E0089581E03F
S1130190089581E008958AB182608AB98AB18E7F18
S11301A08AB91092C00088E98093C10086E08093E8
S11301B0C20087E690E09093C5008093C400089540
S11301C09091C00095FFFCCF8093C6000895CF9313
S11301D0DF93EC0103C00E94E00021968881811125
S11301E0FACFDF91CF910895CF93DF93CDB7DEB7E8
S11301F0A0970FB6F894DEBF0FBECDBF0E94CB0010
S113020041E060EA76E881E090E00E944B0080E003
S113021091E00E94E70011E027C00E94A700812F0F
S1130220880F0E94B3008130B1F41F921F9381E1C3
S113023091E09F938F93CE0101967C019F938F93BE
S11302400E945901C7010E94E7000F900F900F9080
S11302500F900F900F900E94AF0081EE94E00197F1
S1130260F1F700C000001F5F1F37B8F2FFCFA1E213
S11302701A2EAA1BBB1BFD010DC0AA1FBB1FEE1F1C
S1130280FF1FA217B307E407F50720F0A21BB30B67
S1130290E40BF50B661F771F881F991F1A9469F7E3
S11302A060957095809590959B01AC01BD01CF013F
S11302B00895AEE0B0E0EFE5F1E00C941A040D8986
S11302C01E8986E08C831A8309838FEF9FE79E83C0
S11302D08D83AE01475E5F4F6F89788DCE010196A5
S11302E00E947B01EF81F885E00FF11F10822E96AA
S11302F0E4E00C943604ABE0B0E0E1E8F1E00C9407
S11303000C046C017B018A01FC0117821682838133
S113031081FFCCC1CE0101963C01F6019381F70126
S113032093FD859193FF81917F01882309F4BAC1DC
S1130330853239F493FD859193FF81917F01853254
S113034029F4B60190E00E947203E7CF912C212C8E
S1130350312CFFE1F315D8F08B3279F038F4803288
S113036079F08332A1F4232D20611DC08D3261F018
S1130370803369F4232D216016C0832D8260382ECA
S1130380E32DE4603E2E2AC0F32DF8601DC037FC37
S11303902DC020ED280F2A3040F08E32B9F436FCFF
S11303A081C1232D2064322E19C036FE06C08AE096
S11303B0989E200D1124922E11C0EAE02E9E200D4D
S11303C01124222EF32DF0623F2E08C08C3621F426
S11303D0832D8068382E02C0883641F4F70193FDDE
S11303E0859193FF81917F018111B3CF982F9F7DD8
S11303F09554933028F40C5F1F4F9FE399830DC0ED
S1130400833631F0833771F0833509F059C021C048
S1130410F801808189830E5F1F4F88248394912C77
S1130420530113C02801F2E04F0E511CF801A080C3
S1130430B18036FE03C0692D70E002C06FEF7FEF1C
S1130440C5010E9467034C018201F32DFF773F2E03
S113045016C0280122E0420E511CF801A080B18090
S113046036FE03C0692D70E002C06FEF7FEFC50157
S11304700E945C034C01F32DF0683F2E820133FC93
S11304801BC0822D90E088169906B0F4B60180E274
S113049090E00E9472032A94F4CFF50137FC859111
S11304A037FE81915F01B60190E00E947203211032
S11304B02A9421E0821A91088114910471F7E8C00A
S11304C0843611F0893641F5F80137FE07C06081A2
S11304D07181828193810C5F1F4F08C0608171819B
S11304E0072E000C880B990B0E5F1F4FF32DFF7620
S11304F03F2E97FF09C090958095709561957F4F29
S11305008F4F9F4FF0683F2E2AE030E0A3010E94F6
S1130510AE03882E861845C0853731F4232D2F7EEF
S1130520B22E2AE030E025C0932D997FB92E8F3664
S1130530C1F018F4883579F0B5C0803719F08837E0
S113054021F0B0C0E92FE061BE2EB4FE0DC0FB2D3A
S1130550F460BF2E09C034FE0AC0292F2660B22ED3
S113056006C028E030E005C020E130E002C020E110
S113057032E0F801B7FE07C0608171818281938106
S11305800C5F1F4F06C06081718180E090E00E5FB8
S11305901F4FA3010E94AE03882E8618FB2DFF7700
S11305A03F2E36FE0DC0232D2E7FA22E891458F423
S11305B034FE0BC032FC09C0832D8E7EA82E05C0EC
S11305C0B82CA32C03C0B82C01C0B92CA4FE0FC0B6
S11305D0FE01E80DF11D8081803321F49A2D997E6E
S11305E0A92E09C0A2FE06C0B394B39404C08A2DF8
S11305F0867809F0B394A3FC11C0A0FE06C0B2141F
S113060088F4280C922C9B180EC0B21460F4B60126
S113061080E290E00E947203B394F7CFB21418F40E
S11306202B1802C0982C212CA4FE10C0B60180E324
S113063090E00E947203A2FE17C0A1FC03C088E7E9
S113064090E002C088E590E0B6010CC08A2D86785F
S113065059F0A1FE02C08BE201C080E2A7FC8DE24A
S1130660B60190E00E947203891438F4B60180E365
S113067090E00E9472039A94F7CF8A94F301E80DF4
S1130680F11D8081B60190E00E9472038110F5CFC4
S1130690222009F442CEB60180E290E00E94720367
S11306A02A94F6CFF6018681978102C08FEF9FEFDF
S11306B02B96E2E10C942804FC01059061507040F3
S11306C00110D8F7809590958E0F9F1F0895FC0117
S11306D06150704001900110D8F7809590958E0F6D
S11306E09F1F08950F931F93CF93DF93FB012381E3
S11306F021FD03C08FEF9FEF2CC022FF16C046815F
S11307005781248135814217530744F4A081B18174
S11307109D012F5F3F4F318320838C932681378146
S11307202F5F3F4F3783268314C08B01EC01FB01FD
S11307300084F185E02D0995892BE1F6D801169600
S11307408D919C911797019617969C938E9316976B
S1130750CE01DF91CF911F910F910895FA01AA273D
S1130760283051F1203181F1E8946F936E7F6E5FF0
S11307707F4F8F4F9F4FAF4FB1E03ED0B4E03CD09E
S1130780670F781F891F9A1FA11D680F791F8A1F81
S1130790911DA11D6A0F711D811D911DA11D20D0E8
S11307A009F468943F912AE0269F11243019305DA2
S11307B03193DEF6CF010895462F4770405D419393
S11307C0B3E00FD0C9F7F6CF462F4F70405D4A33E0
S11307D018F0495D31FD4052419302D0A9F7EACFA8
S11307E0B4E0A6959795879577956795BA95C9F7D7
S11307F000976105710508959B01AC010A2E0694CA
S11308005795479537952795BA95C9F7620F731F82
S1130810841F951FA01D08952F923F924F925F92BF
S11308206F927F928F929F92AF92BF92CF92DF92FC
S1130830EF92FF920F931F93CF93DF93CDB7DEB761
S1130840CA1BDB0B0FB6F894DEBF0FBECDBF0994F5
S11308502A88398848885F846E847D848C849B844C
S1130860AA84B984C884DF80EE80FD800C811B815A
S1130870AA81B981CE0FD11D0FB6F894DEBF0FBE89
S10D0880CDBFED010895F894FFCFF9
S113088A457363616E656F204932432E2E2E0D0A1D
S113089A00446973706F73697469766F20656E209A
S10D08AA3078253032580D0A0000A2
S9030000FC
