:100000000C9434000C9451000C9451000C94510049
:100010000C9451000C9451000C9451000C9451001C
:100020000C9451000C9451000C9451000C9451000C
:100030000C9451000C9451000C9451000C945100FC
:100040000C9451000C9451000C9451000C945100EC
:100050000C9451000C9451000C9451000C945100DC
:100060000C9409030C94510011241FBECFEFD8E06B
:10007000DEBFCDBF11E0A0E0B1E0EAEBFCE002C0E2
:1000800005900D92AE33B107D9F721E0AEE3B1E0B0
:1000900001C01D92A235B207E1F70E945E030C94E5
:1000A0005B060C94000084B1846084B98AB18068D6
:1000B0008AB985B1846085B98BB180688BB90895A0
:1000C00085B18B7F85B9089585B1846085B9089520
:1000D0008BB180688BB9089584B18C6284B984B186
:1000E0008F7E84B981E58CBD1DBC08958EBD0DB495
:1000F00007FEFDCF8EB50895CF93DF93C82FD62F7F
:100100000E9460008C2F90E0880F991F8E770E94CC
:1001100076008D2F0E9476000E946400DF91CF91BF
:1001200008956FE081E00E947C000895CF93C82F6E
:100130000E9460008C2F90E0880F991F8E77806856
:100140000E94760080E00E947600C82F0E94640022
:100150008C2FCF910895CF93DF93D82FC62F0E9475
:100160009600682F6C2B8D2F0E947C00DF91CF9121
:10017000089584E10E949600837021F463E084E195
:100180000E94AB0008950E9453000E946C000E94E0
:1001900068000E9491006DE88AE20E947C006EE394
:1001A0008BE20E947C006EE18DE20E947C0060E0A8
:1001B0008CE20E947C0060E485E10E947C006DE39B
:1001C00081E10E947C000E94B9000895CF93DF93E3
:1001D000D82FC62F0E949600C0956C2F68238D2FB4
:1001E0000E947C00DF91CF9108957F928F929F9221
:1001F000AF92BF92CF92DF92EF92FF920F931F9335
:10020000CF93DF93982E5B01742E790168018CE007
:10021000981631F0EEE09E1649F000E0812C0BC0FC
:1002200000E30F2EF7E78F2EF02D05C000E10F2E13
:10023000F2E18F2EF02D682D606882E00E947C0034
:1002400060E884E00E94E60060E88AE00E94AB007B
:1002500060E081E00E947C00C0E0D0E008C0F501D1
:10026000EC0FFD1F608189E00E947C002196872DA4
:1002700090E0C817D90798F3692D81E00E947C00AF
:10028000FCE09F1204C060E88DE00E94AB00C0ED6E
:10029000D7E084E00E949600182F219729F080FD76
:1002A00003C0802F8123A9F360E88DE00E94E6005F
:1002B000CD2B09F44CC086E00E9496008B7109F0AA
:1002C00048C0182110FD02C0C0E001C0C1E08CE0B0
:1002D000981240C08AE00E949600D82F8CE00E94BD
:1002E0009600282F277079F08D2F90E00197880FC6
:1002F000991F880F991F880F991F820F911DF60172
:10030000918380830BC08D2F90E0880F991F880FF9
:10031000991F880F991FF60191838083D11101C025
:10032000D1E0D13108F0D0E100E010E00AC067016F
:10033000C00ED11E89E00E949600F60180830F5FF7
:100340001F4F8D2F90E00817190788F303C0C2E0F4
:1003500001C0C2E08C2FDF91CF911F910F91FF90D0
:10036000EF90DF90CF90BF90AF909F908F907F9055
:100370000895EF92FF920F931F93CF93DF9300D0D6
:10038000CDB7DEB7182F7B0167E08DE00E947C00BF
:10039000F70110838E010F5F1F4F970141E0B701F6
:1003A0008CE00E94F500811106C029813A8120313C
:1003B000310519F403C082E001C082E00F900F9074
:1003C000DF91CF911F910F91FF90EF900895EF92E1
:1003D000FF920F931F93CF93DF9300D0CDB7DEB77B
:1003E0007C0160E08DE00E947C0083E9F70180835E
:1003F00080E281838E010F5F1F4F970142E0B701BA
:100400008CE00E94F500882341F011C0F701E90F4C
:10041000F11D308123279F5F02C020E090E09430DF
:10042000A8F3F701E90FF11D9081291382E00F90E5
:100430000F90DF91CF911F910F91FF90EF90089552
:10044000CF93DF93CDB7DEB760970FB6F894DEBFDA
:100450000FBECDBFBE016F5F7F4F86E20E94B90124
:10046000811102C081E001C080E060960FB6F8946F
:10047000DEBF0FBECDBFDF91CF910895CF93DF9345
:10048000CDB7DEB760970FB6F894DEBF0FBECDBF15
:10049000CE0101960E94E70195E0FE013196A5E4A8
:1004A000B1E001900D929A95E1F7811102C081E0CF
:1004B00001C080E060960FB6F894DEBF0FBECDBFDE
:1004C000DF91CF91089597B19F7C97B9880F809362
:1004D000BA0085E48093BC0008958AB182608AB92D
:1004E0008AB18E7F8AB91092C00088E98093C100DA
:1004F00086E08093C20087E690E09093C5008093E9
:10050000C40008959091C00095FFFCCF8093C60071
:100510000895CF93DF93EC0103C00E9482022196DD
:1005200088818111FACFDF91CF91089584B18260E3
:1005300084B982E8809380008AE1809381008FE310
:100540009CE99093870080938600089580EA9FE05D
:100550009093890080938800089580ED97E09093B0
:100560008900809388000895CF93DF930E94200232
:10057000882309F442C080E091E00E9489020E9431
:100580003E028823D1F185E191E00E948902C0E01A
:10059000D0E01FC0FE01EB5BFE4F8081FE01E15CFD
:1005A000FE4F80831F928F938BE191E09F938F93F7
:1005B0008FE491E09F938F930E9471038FE491E009
:1005C0000E94890221960F900F900F900F900F902C
:1005D0000F90C530D105F4F282E191E00E948902CA
:1005E0000E94A6022FEF8BE792E9215080409040B5
:1005F000E1F700C000000E94AD022FEF83EC99E00C
:10060000215080409040E1F700C00000DF91CF9181
:1006100008951F920F920FB60F9211248F93EF93AC
:10062000FF938091B9008C7F803899F028F4803650
:1006300051F0803741F035C0883AA9F0883B99F0F5
:10064000803979F506C0ECEBF0E08081806880832A
:100650002DC08091BB0080934401ECEBF0E08081E1
:100660008068808323C080914401823599F4E091B1
:100670003E0181E08E0F80933E01F0E0E15CFE4F91
:1006800080818093BB0080913E01853030F01092D4
:100690003E0103C08FEF8093BB0085EC8093BC00CC
:1006A00005C0ECEBF0E0808180698083FF91EF91E1
:1006B0008F910F900FBE0F901F9018950E946D02A2
:1006C00080E30E9463020E94C3000E949602789415
:1006D0000E94AD0280E291E00E9489020E94B40271
:1006E000FDCFAEE0B0E0E7E7F3E00C9432060D8911
:1006F0001E8986E08C831A8309838FEF9FE79E8390
:100700008D83AE01475E5F4F6F89788DCE01019674
:100710000E949303EF81F885E00FF11F10822E965F
:10072000E4E00C944E06ABE0B0E0E9E9F3E00C94B1
:1007300024066C017B018A01FC01178216828381E9
:1007400081FFCCC1CE0101963C01F6019381F701F6
:1007500093FD859193FF81917F01882309F4BAC1AC
:10076000853239F493FD859193FF81917F01853224
:1007700029F4B60190E00E948A05E7CF912C212C44
:10078000312CFFE1F315D8F08B3279F038F4803258
:1007900079F08332A1F4232D20611DC08D3261F0E8
:1007A000803369F4232D216016C0832D8260382E9A
:1007B000E32DE4603E2E2AC0F32DF8601DC037FC07
:1007C0002DC020ED280F2A3040F08E32B9F436FCCF
:1007D00081C1232D2064322E19C036FE06C08AE066
:1007E000989E200D1124922E11C0EAE02E9E200D1D
:1007F0001124222EF32DF0623F2E08C08C3621F4F6
:10080000832D8068382E02C0883641F4F70193FDAD
:10081000859193FF81917F018111B3CF982F9F7DA7
:100820009554933028F40C5F1F4F9FE399830DC0BC
:10083000833631F0833771F0833509F059C021C018
:10084000F801808189830E5F1F4F88248394912C47
:10085000530113C02801F2E04F0E511CF801A08093
:10086000B18036FE03C0692D70E002C06FEF7FEFEC
:10087000C5010E947F054C018201F32DFF773F2EB9
:1008800016C0280122E0420E511CF801A080B18060
:1008900036FE03C0692D70E002C06FEF7FEFC50127
:1008A0000E9474054C01F32DF0683F2E820133FC49
:1008B0001BC0822D90E088169906B0F4B60180E244
:1008C00090E00E948A052A94F4CFF50137FC8591C7
:1008D00037FE81915F01B60190E00E948A052110E8
:1008E0002A9421E0821A91088114910471F7E8C0DA
:1008F000843611F0893641F5F80137FE07C0608172
:100900007181828193810C5F1F4F08C0608171816A
:10091000072E000C880B990B0E5F1F4FF32DFF76EF
:100920003F2E97FF09C090958095709561957F4FF8
:100930008F4F9F4FF0683F2E2AE030E0A3010E94C6
:10094000C605882E861845C0853731F4232D2F7EA5
:10095000B22E2AE030E025C0932D997FB92E8F3634
:10096000C1F018F4883579F0B5C0803719F08837B0
:1009700021F0B0C0E92FE061BE2EB4FE0DC0FB2D0A
:10098000F460BF2E09C034FE0AC0292F2660B22EA3
:1009900006C028E030E005C020E130E002C020E1E0
:1009A00032E0F801B7FE07C06081718182819381D6
:1009B0000C5F1F4F06C06081718180E090E00E5F88
:1009C0001F4FA3010E94C605882E8618FB2DFF77B6
:1009D0003F2E36FE0DC0232D2E7FA22E891458F4F3
:1009E00034FE0BC032FC09C0832D8E7EA82E05C0BC
:1009F000B82CA32C03C0B82C01C0B92CA4FE0FC086
:100A0000FE01E80DF11D8081803321F49A2D997E3D
:100A1000A92E09C0A2FE06C0B394B39404C08A2DC7
:100A2000867809F0B394A3FC11C0A0FE06C0B214EE
:100A300088F4280C922C9B180EC0B21460F4B601F6
:100A400080E290E00E948A05B394F7CFB21418F4C4
:100A50002B1802C0982C212CA4FE10C0B60180E3F4
:100A600090E00E948A05A2FE17C0A1FC03C088E79F
:100A700090E002C088E590E0B6010CC08A2D86782F
:100A800059F0A1FE02C08BE201C080E2A7FC8DE21A
:100A9000B60190E00E948A05891438F4B60180E31B
:100AA00090E00E948A059A94F7CF8A94F301E80DAA
:100AB000F11D8081B60190E00E948A058110F5CF7A
:100AC000222009F442CEB60180E290E00E948A051D
:100AD0002A94F6CFF6018681978102C08FEF9FEFAF
:100AE0002B96E2E10C944006FC01059061507040A9
:100AF0000110D8F7809590958E0F9F1F0895FC01E7
:100B00006150704001900110D8F7809590958E0F3C
:100B10009F1F08950F931F93CF93DF93FB012381B2
:100B200021FD03C08FEF9FEF2CC022FF16C046812E
:100B30005781248135814217530744F4A081B18144
:100B40009D012F5F3F4F318320838C932681378116
:100B50002F5F3F4F3783268314C08B01EC01FB01CD
:100B60000084F185E02D0995892BE1F6D8011696D0
:100B70008D919C911797019617969C938E9316973B
:100B8000CE01DF91CF911F910F910895FA01AA270D
:100B9000283051F1203181F1E8946F936E7F6E5FC0
:100BA0007F4F8F4F9F4FAF4FB1E03ED0B4E03CD06E
:100BB000670F781F891F9A1FA11D680F791F8A1F51
:100BC000911DA11D6A0F711D811D911DA11D20D0B8
:100BD00009F468943F912AE0269F11243019305D72
:100BE0003193DEF6CF010895462F4770405D419363
:100BF000B3E00FD0C9F7F6CF462F4F70405D4A33B0
:100C000018F0495D31FD4052419302D0A9F7EACF77
:100C1000B4E0A6959795879577956795BA95C9F7A6
:100C200000976105710508959B01AC010A2E069499
:100C30005795479537952795BA95C9F7620F731F52
:100C4000841F951FA01D08952F923F924F925F928F
:100C50006F927F928F929F92AF92BF92CF92DF92CC
:100C6000EF92FF920F931F93CF93DF93CDB7DEB731
:100C7000CA1BDB0B0FB6F894DEBF0FBECDBF0994C5
:100C80002A88398848885F846E847D848C849B841C
:100C9000AA84B984C884DF80EE80FD800C811B812A
:100CA000AA81B981CE0FD11D0FB6F894DEBF0FBE59
:0A0CB000CDBFED010895F894FFCFC9
:100CBA005461726A65746120646574656374616401
:100CCA0061210D0A005549443A2000253032580066
:100CDA000D0A4573636C61766F20493243202D20DB
:0E0CEA004E4643206C6973746F210D0A0000A2
:00000001FF
