S01300004573636C61766F204E46432E737265634D
S11300000C9434000C9451000C9451000C94510045
S11300100C9451000C9451000C9451000C94510018
S11300200C9451000C9451000C9451000C94510008
S11300300C9451000C9451000C9451000C945100F8
S11300400C9451000C9451000C9451000C945100E8
S11300500C9451000C9451000C9451000C945100D8
S11300600C94B7030C94510011241FBECFEFD8E0B9
S1130070DEBFCDBF11E0A0E0B1E0E0EFF0E102C0EF
S113008005900D92A43CB107D9F721E0A4ECB1E0AE
S113009001C01D92A53FB207E1F70E9424040C940D
S11300A076080C94000084B1846084B98AB18068B5
S11300B08AB985B1846085B98BB180688BB908959C
S11300C085B18B7F85B9089585B1846085B908951C
S11300D08BB180688BB9089584B18C6284B984B182
S11300E08F7E84B981E58CBD1DBC08958EBD0DB491
S11300F007FEFDCF8EB50895CF93DF93C82FD62F7B
S11301000E9460008C2F90E0880F991F8E770E94C8
S113011076008D2F0E9476000E946400DF91CF91BB
S113012008956FE081E00E947C000895CF93C82F6A
S11301300E9460008C2F90E0880F991F8E77806852
S11301400E94760080E00E947600C82F0E9464001E
S11301508C2FCF910895CF93DF93D82FC62F0E9471
S11301609600682F6C2B8D2F0E947C00DF91CF911D
S1130170089584E10E949600837021F463E084E191
S11301800E94AB0008950E9453000E946C000E94DC
S113019068000E9491006DE88AE20E947C006EE390
S11301A08BE20E947C006EE18DE20E947C0060E0A4
S11301B08CE20E947C0060E485E10E947C006DE397
S11301C081E10E947C000E94B9000895CF93DF93DF
S11301D0D82FC62F0E949600C0956C2F68238D2FB0
S11301E00E947C00DF91CF9108957F928F929F921D
S11301F0AF92BF92CF92DF92EF92FF920F931F9331
S1130200CF93DF93982E5B01742E790168018CE003
S1130210981631F0EEE09E1649F000E0812C0BC0F8
S113022000E30F2EF7E78F2EF02D05C000E10F2E0F
S1130230F2E18F2EF02D682D606882E00E947C0030
S113024060E884E00E94E60060E88AE00E94AB0077
S113025060E081E00E947C00C0E0D0E008C0F501CD
S1130260EC0FFD1F608189E00E947C002196872DA0
S113027090E0C817D90798F3692D81E00E947C00AB
S1130280FCE09F1204C060E88DE00E94AB00C0ED6A
S1130290D7E084E00E949600182F219729F080FD72
S11302A003C0802F8123A9F360E88DE00E94E6005B
S11302B0CD2B09F44CC086E00E9496008B7109F0A6
S11302C048C0182110FD02C0C0E001C0C1E08CE0AC
S11302D0981240C08AE00E949600D82F8CE00E94B9
S11302E09600282F277079F08D2F90E00197880FC2
S11302F0991F880F991F880F991F820F911DF6016E
S1130300918380830BC08D2F90E0880F991F880FF5
S1130310991F880F991FF60191838083D11101C021
S1130320D1E0D13108F0D0E100E010E00AC067016B
S1130330C00ED11E89E00E949600F60180830F5FF3
S11303401F4F8D2F90E00817190788F303C0C2E0F0
S113035001C0C2E08C2FDF91CF911F910F91FF90CC
S1130360EF90DF90CF90BF90AF909F908F907F9051
S11303700895EF92FF920F931F93CF93DF9300D0D2
S1130380CDB7DEB7182F7B0167E08DE00E947C00BB
S1130390F70110838E010F5F1F4F970141E0B701F2
S11303A08CE00E94F500811106C029813A81203138
S11303B0310519F403C082E001C082E00F900F9070
S11303C0DF91CF911F910F91FF90EF900895EF92DD
S11303D0FF920F931F93CF93DF9300D0CDB7DEB777
S11303E07C0160E08DE00E947C0083E9F70180835A
S11303F080E281838E010F5F1F4F970142E0B701B6
S11304008CE00E94F500882341F011C0F701E90F48
S1130410F11D308123279F5F02C020E090E09430DB
S1130420A8F3F701E90FF11D9081291382E00F90E1
S11304300F90DF91CF911F910F91FF90EF9008954E
S1130440CF93DF93CDB7DEB760970FB6F894DEBFD6
S11304500FBECDBFBE016F5F7F4F86E20E94B90120
S1130460811102C081E001C080E060960FB6F8946B
S1130470DEBF0FBECDBFDF91CF910895CF93DF9341
S1130480CDB7DEB760970FB6F894DEBF0FBECDBF11
S1130490CE0101960E94E70195E0FE013196A8EC99
S11304A0B1E001900D929A95E1F7811102C081E0CB
S11304B001C080E060960FB6F894DEBF0FBECDBFDA
S11304C0DF91CF91089597B19F7C97B9880F80935E
S11304D0BA0085E48093BC0008958AB182608AB929
S11304E08AB18E7F8AB91092C00088E98093C100D6
S11304F086E08093C20087E690E09093C5008093E5
S1130500C40008959091C00095FFFCCF8093C6006D
S11305100895CF93DF93EC0103C00E9482022196D9
S113052088818111FACFDF91CF91089584B18360DE
S113053084B9089585B18C7F85B917BC089585B1B8
S1130540816085B985B18D7F85B988EC87BD0895B3
S113055085B1826085B985B18E7F85B988EC87BD08
S113056008958AB180628AB98AB18F7B8AB9089565
S11305708BB18F7D8BB98AE08A95F1F700C08BB17E
S113058080628BB985E38A95F1F700008BB18F7D8A
S11305908BB94E9BFECF60E070E006C085E08A9583
S11305A0F1F700006F5F7F4F4E99F8CF80E090E045
S11305B00E94910428E23EE74CE05DE30E94F704C8
S11305C020E030E040E05FE30E94F7040E94620410
S11305D0CB0108951F93CF93DF93823079F018F401
S11305E0813031F074C0833029F0843029F06FC039
S11305F096E105C098E003C090E001C09EE0182F8A
S1130600C92FD0E01F929F931F928F9380E091E0B7
S11306109F938F9382ED91E09F938F930E948C051B
S113062082ED91E00E9489028DB79EB708960FB6BD
S1130630F8949EBF0FBE8DBF0E94B8028F3F9105F4
S113064019F010F08FEF90E08093C6012091C6015D
S113065030E0AE014F5F5F4F421753071CF40E9416
S1130660A8022BC02091C60130E0AE0141505109CF
S1130670241735071CF40E949F021FC00E949A028F
S11306808091C6011F928F931F921F938EE191E078
S11306909F938F9382ED91E09F938F930E948C059B
S11306A082ED91E00E9489028DB79EB708960FB63D
S11306B0F8949EBF0FBE8DBF0AC09FEF21EE84E069
S11306C0915020408040E1F700C00000B5CFDF9199
S11306D0CF911F910895CF93DF930E942002882326
S11306E0D1F18BE391E00E9489020E943E028823AB
S11306F071F18CE491E00E948902C0E0D0E01BC05B
S1130700FE01E853FE4F80811F928F938AE591E0AA
S11307109F938F9382EF91E09F938F930E948C0518
S113072082EF91E00E94890221960F900F900F9022
S11307300F900F900F90C530D10514F38091C8012C
S11307408093C50189E491E00E94890204C08FE589
S113075091E00E9489022FEF83EC99E021508040C0
S11307609040E1F700C00000DF91CF9108951F92FF
S11307700F920FB60F9211242F933F934F935F93D1
S11307806F937F938F939F93AF93BF93EF93FF9355
S11307908091B9008C7F803899F028F4803651F02C
S11307A0803741F03BC0883A01F1883BF1F0803951
S11307B0A9F506C0ECEBF0E080818068808333C04B
S11307C08091C701853439F48091BB008093C401C2
S11307D00E94EA0204C08091BB008093C701ECEB45
S11307E0F0E08081806880831EC08091C7018434DA
S11307F029F48091C6018093BB000CC08091C7018D
S1130800823529F48091C5018093BB0003C08FEF2A
S11308108093BB0085EC8093BC0005C0ECEBF0E05A
S1130820808180698083FF91EF91BF91AF919F9107
S11308308F917F916F915F914F913F912F910F9085
S11308400FBE0F901F9018950E946D020E94B10276
S113085080E30E9463020E94C3000E94960278947F
S11308608DE791E00E9489020E94B8028F3F9105B2
S113087019F010F08FEF90E08093C6018091C601CB
S11308801F928F9380EB91E09F938F9382ED91E081
S11308909F938F930E948C0582ED91E00E948902C0
S11308A00E946B032FEF89E698E12150804090402D
S11308B0E1F700C000000F900F900F900F900F9081
S11308C00F90D2CF0E94D60488F09F5798F0B92F8A
S11308D09927B751B0F0E1F0660F771F881F991F71
S11308E01AF0BA95C9F714C0B13091F00E94F0041F
S11308F0B1E008950C94F004672F782F8827B85F2F
S113090039F0B93FCCF3869577956795B395D9F7C8
S11309103EF490958095709561957F4F8F4F9F4FD2
S11309200895E89409C097FB3EF4909580957095DE
S113093061957F4F8F4F9F4F9923A9F0F92F96E927
S1130940BB279395F695879577956795B795F1119C
S1130950F8CFFAF4BB0F11F460FF1BC06F5F7F4F39
S11309608F4F9F4F16C0882311F096E911C077234B
S113097021F09EE8872F762F05C0662371F096E854
S1130980862F70E060E02AF09A95660F771F881F23
S1130990DAF7880F9695879597F9089557FD90583B
S11309A0440F551F59F05F3F71F04795880F97FB2F
S11309B0991F61F09F3F79F08795089512161306E9
S11309C01406551FF2CF4695F1DF08C01616170618
S11309D01806991FF1CF869571056105089408954D
S11309E0E894BB2766277727CB0197F908950E94DF
S11309F00A050C947B050E946D0538F00E9474056D
S1130A0020F0952311F00C9464050C946A051124CC
S1130A100C94F1040E94CE0470F3959FC1F3950FDA
S1130A2050E0551F629FF001729FBB27F00DB11D6E
S1130A30639FAA27F00DB11DAA1F649F6627B00DFE
S1130A40A11D661F829F2227B00DA11D621F739FE7
S1130A50B00DA11D621F839FA00D611D221F749FF5
S1130A603327A00D611D231F849F600D211D822F3C
S1130A70762F6A2F11249F5750409AF0F1F0882363
S1130A804AF0EE0FFF1FBB1F661F771F881F915090
S1130A905040A9F79E3F510580F00C9464050C94D6
S1130AA0F1045F3FE4F3983ED4F386957795679518
S1130AB0B795F795E7959F5FC1F7FE2B880F911DBA
S1130AC09695879597F9089597F99F6780E870E060
S1130AD060E008959FEF80EC089500240A941616B0
S1130AE0170618060906089500240A941216130618
S1130AF0140605060895092E0394000C11F48823A6
S1130B0052F0BB0F40F4BF2B11F460FF04C06F5FC1
S1130B107F4F8F4F9F4F0895AEE0B0E0E2E9F5E0DC
S1130B200C944D080D891E8986E08C831A830983F1
S1130B308FEF9FE79E838D83AE01475E5F4F6F8982
S1130B40788DCE0101960E94AE05EF81F885E00F05
S1130B50F11F10822E96E4E00C946908ABE0B0E03B
S1130B60E4EBF5E00C943F086C017B018A01FC0185
S1130B7017821682838181FFCCC1CE0101963C018C
S1130B80F6019381F70193FD859193FF81917F0194
S1130B90882309F4BAC1853239F493FD859193FF12
S1130BA081917F01853229F4B60190E00E94A50766
S1130BB0E7CF912C212C312CFFE1F315D8F08B32A7
S1130BC079F038F4803279F08332A1F4232D206156
S1130BD01DC08D3261F0803369F4232D216016C06D
S1130BE0832D8260382EE32DE4603E2E2AC0F32D3F
S1130BF0F8601DC037FC2DC020ED280F2A3040F0CE
S1130C008E32B9F436FC81C1232D2064322E19C0F2
S1130C1036FE06C08AE0989E200D1124922E11C043
S1130C20EAE02E9E200D1124222EF32DF0623F2E99
S1130C3008C08C3621F4832D8068382E02C0883693
S1130C4041F4F70193FD859193FF81917F01811117
S1130C50B3CF982F9F7D9554933028F40C5F1F4F8A
S1130C609FE399830DC0833631F0833771F0833568
S1130C7009F059C021C0F801808189830E5F1F4F9C
S1130C8088248394912C530113C02801F2E04F0E61
S1130C90511CF801A080B18036FE03C0692D70E0BC
S1130CA002C06FEF7FEFC5010E949A074C018201D9
S1130CB0F32DFF773F2E16C0280122E0420E511C6F
S1130CC0F801A080B18036FE03C0692D70E002C037
S1130CD06FEF7FEFC5010E948F074C01F32DF06881
S1130CE03F2E820133FC1BC0822D90E088169906AA
S1130CF0B0F4B60180E290E00E94A5072A94F4CFF4
S1130D00F50137FC859137FE81915F01B60190E0D2
S1130D100E94A50721102A9421E0821A91088114C7
S1130D20910471F7E8C0843611F0893641F5F80171
S1130D3037FE07C060817181828193810C5F1F4FF0
S1130D4008C060817181072E000C880B990B0E5F1F
S1130D501F4FF32DFF763F2E97FF09C09095809586
S1130D60709561957F4F8F4F9F4FF0683F2E2AE01B
S1130D7030E0A3010E94E107882E861845C085371C
S1130D8031F4232D2F7EB22E2AE030E025C0932D9E
S1130D90997FB92E8F36C1F018F4883579F0B5C033
S1130DA0803719F0883721F0B0C0E92FE061BE2EFA
S1130DB0B4FE0DC0FB2DF460BF2E09C034FE0AC082
S1130DC0292F2660B22E06C028E030E005C020E1BD
S1130DD030E002C020E132E0F801B7FE07C06081D4
S1130DE07181828193810C5F1F4F06C06081718184
S1130DF080E090E00E5F1F4FA3010E94E107882E60
S1130E008618FB2DFF773F2E36FE0DC0232D2E7F37
S1130E10A22E891458F434FE0BC032FC09C0832D71
S1130E208E7EA82E05C0B82CA32C03C0B82C01C0FC
S1130E30B92CA4FE0FC0FE01E80DF11D80818033A2
S1130E4021F49A2D997EA92E09C0A2FE06C0B3945E
S1130E50B39404C08A2D867809F0B394A3FC11C01E
S1130E60A0FE06C0B21488F4280C922C9B180EC065
S1130E70B21460F4B60180E290E00E94A507B39436
S1130E80F7CFB21418F42B1802C0982C212CA4FE0E
S1130E9010C0B60180E390E00E94A507A2FE17C02F
S1130EA0A1FC03C088E790E002C088E590E0B601A9
S1130EB00CC08A2D867859F0A1FE02C08BE201C0D5
S1130EC080E2A7FC8DE2B60190E00E94A507891498
S1130ED038F4B60180E390E00E94A5079A94F7CF16
S1130EE08A94F301E80DF11D8081B60190E00E941F
S1130EF0A5078110F5CF222009F442CEB60180E285
S1130F0090E00E94A5072A94F6CFF6018681978186
S1130F1002C08FEF9FEF2B96E2E10C945B08FC017B
S1130F200590615070400110D8F7809590958E0F10
S1130F309F1F0895FC016150704001900110D8F783
S1130F40809590958E0F9F1F08950F931F93CF93B5
S1130F50DF93FB01238121FD03C08FEF9FEF2CC0A2
S1130F6022FF16C0468157812481358142175307D9
S1130F7044F4A081B1819D012F5F3F4F31832083D1
S1130F808C93268137812F5F3F4F3783268314C08C
S1130F908B01EC01FB010084F185E02D0995892B7F
S1130FA0E1F6D80116968D919C91179701961796A4
S1130FB09C938E931697CE01DF91CF911F910F9141
S1130FC00895FA01AA27283051F1203181F1E894DB
S1130FD06F936E7F6E5F7F4F8F4F9F4FAF4FB1E028
S1130FE03ED0B4E03CD0670F781F891F9A1FA11D23
S1130FF0680F791F8A1F911DA11D6A0F711D811D24
S1131000911DA11D20D009F468943F912AE0269FE8
S113101011243019305D3193DEF6CF010895462F47
S11310204770405D4193B3E00FD0C9F7F6CF462F28
S11310304F70405D4A3318F0495D31FD4052419391
S113104002D0A9F7EACFB4E0A6959795879577954E
S11310506795BA95C9F700976105710508959B01D5
S1131060AC010A2E06945795479537952795BA955E
S1131070C9F7620F731F841F951FA01D08952F9237
S11310803F924F925F926F927F928F929F92AF9214
S1131090BF92CF92DF92EF92FF920F931F93CF9361
S11310A0DF93CDB7DEB7CA1BDB0B0FB6F894DEBFF8
S11310B00FBECDBF09942A88398848885F846E841E
S11310C07D848C849B84AA84B984C884DF80EE8068
S11310D0FD800C811B81AA81B981CE0FD11D0FB671
S11310E0F894DEBF0FBECDBFED010895F894FFCF95
S11310F04D6F7669656E646F2061206E6976656CEC
S11311002025752028257520636D290D0A004E6958
S113111076656C20257520616C63616E7A61646FFD
S11311202028257520636D290D0A0043617264200F
S11311306465746563746564210D0A0043617264B7
S11311402053657269616C3A20002530325800469C
S113115061696C656420746F2072656164206361E9
S113116072642073657269616C2E0D0A000D0A4564
S113117073636C61766F20493243202D204E4643C1
S1131180202B20556C747261736F6E69636F202B12
S113119020536572766F206C6973746F210D0A0099
S11311A044697374616E6369613A20257520636DC7
S10711B00D0A000020
S9030000FC
