S01300004573636C61766F204E46432E737265634D
S11300000C9434000C9451000C9451000C94510045
S11300100C9451000C9451000C9451000C94510018
S11300200C9451000C9451000C9451000C94510008
S11300300C9451000C9451000C9451000C945100F8
S11300400C9451000C9451000C9451000C945100E8
S11300500C9451000C9451000C9451000C945100D8
S11300600C94DD020C94510011241FBECFEFD8E094
S1130070DEBFCDBF11E0A0E0B1E0E6EEFFE002C0DC
S113008005900D92AE33B107D9F721E0AEE3B1E0AC
S113009001C01D92A235B207E1F70E9439030C9406
S11300A0F1070C94000084B1846084B98AB180683B
S11300B08AB985B1846085B98BB180688BB908959C
S11300C085B18B7F85B9089585B1846085B908951C
S11300D08BB180688BB9089584B18C6284B984B182
S11300E08F7E84B981E58CBD1DBC08958EBD0DB491
S11300F007FEFDCF8EB50895CF93DF93C82FD62F7B
S11301000E9460008C2F90E0880F991F8E770E94C8
S113011076008D2F0E9476000E946400DF91CF91BB
S113012008956FE081E00E947C000895CF93C82F6A
S11301300E9460008C2F90E0880F991F8E77806852
S11301400E94760080E00E947600C82F0E9464001E
S11301508C2FCF910895CF93DF93D82FC62F0E9471
S11301609600682F6C2B8D2F0E947C00DF91CF911D
S1130170089584E10E949600837021F463E084E191
S11301800E94AB0008950E9453000E946C000E94DC
S113019068000E9491006DE88AE20E947C006EE390
S11301A08BE20E947C006EE18DE20E947C0060E0A4
S11301B08CE20E947C0060E485E10E947C006DE397
S11301C081E10E947C000E94B9000895CF93DF93DF
S11301D0D82FC62F0E949600C0956C2F68238D2FB0
S11301E00E947C00DF91CF9108957F928F929F921D
S11301F0AF92BF92CF92DF92EF92FF920F931F9331
S1130200CF93DF93982E5B01742E790168018CE003
S1130210981631F0EEE09E1649F000E0812C0BC0F8
S113022000E30F2EF7E78F2EF02D05C000E10F2E0F
S1130230F2E18F2EF02D682D606882E00E947C0030
S113024060E884E00E94E60060E88AE00E94AB0077
S113025060E081E00E947C00C0E0D0E008C0F501CD
S1130260EC0FFD1F608189E00E947C002196872DA0
S113027090E0C817D90798F3692D81E00E947C00AB
S1130280FCE09F1204C060E88DE00E94AB00C0ED6A
S1130290D7E084E00E949600182F219729F080FD72
S11302A003C0802F8123A9F360E88DE00E94E6005B
S11302B0CD2B09F44CC086E00E9496008B7109F0A6
S11302C048C0182110FD02C0C0E001C0C1E08CE0AC
S11302D0981240C08AE00E949600D82F8CE00E94B9
S11302E09600282F277079F08D2F90E00197880FC2
S11302F0991F880F991F880F991F820F911DF6016E
S1130300918380830BC08D2F90E0880F991F880FF5
S1130310991F880F991FF60191838083D11101C021
S1130320D1E0D13108F0D0E100E010E00AC067016B
S1130330C00ED11E89E00E949600F60180830F5FF3
S11303401F4F8D2F90E00817190788F303C0C2E0F0
S113035001C0C2E08C2FDF91CF911F910F91FF90CC
S1130360EF90DF90CF90BF90AF909F908F907F9051
S11303700895EF92FF920F931F93CF93DF9300D0D2
S1130380CDB7DEB7182F7B0167E08DE00E947C00BB
S1130390F70110838E010F5F1F4F970141E0B701F2
S11303A08CE00E94F500811106C029813A81203138
S11303B0310519F403C082E001C082E00F900F9070
S11303C0DF91CF911F910F91FF90EF900895EF92DD
S11303D0FF920F931F93CF93DF9300D0CDB7DEB777
S11303E07C0160E08DE00E947C0083E9F70180835A
S11303F080E281838E010F5F1F4F970142E0B701B6
S11304008CE00E94F500882341F011C0F701E90F48
S1130410F11D308123279F5F02C020E090E09430DB
S1130420A8F3F701E90FF11D9081291382E00F90E1
S11304300F90DF91CF911F910F91FF90EF9008954E
S1130440CF93DF93CDB7DEB760970FB6F894DEBFD6
S11304500FBECDBFBE016F5F7F4F86E20E94B90120
S1130460811102C081E001C080E060960FB6F8946B
S1130470DEBF0FBECDBFDF91CF910895CF93DF9341
S1130480CDB7DEB760970FB6F894DEBF0FBECDBF11
S1130490CE0101960E94E70195E0FE013196A5E4A4
S11304A0B1E001900D929A95E1F7811102C081E0CB
S11304B001C080E060960FB6F894DEBF0FBECDBFDA
S11304C0DF91CF91089597B19F7C97B9880F80935E
S11304D0BA0085E48093BC0008958AB182608AB929
S11304E08AB18E7F8AB91092C00088E98093C100D6
S11304F086E08093C20087E690E09093C5008093E5
S1130500C40008959091C00095FFFCCF8093C6006D
S11305100895CF93DF93EC0103C00E9482022196D9
S113052088818111FACFDF91CF910895CF93DF9322
S11305300E9420028823A9F181E091E00E948902AF
S11305400E943E02882369F186E191E00E948902BB
S1130550C0E0D0E01FC0FE01EB5BFE4F8081FE01D6
S1130560E15CFE4F80831F928F938CE191E09F9317
S11305708F938FE491E09F938F930E9407058FE4FC
S113058091E00E94890221960F900F900F900F9096
S11305900F900F90C530D105F4F283E191E00E94F1
S11305A089022FEF89E698E1215080409040E1F7DD
S11305B000C00000DF91CF9108951F920F920FB6F3
S11305C00F9211248F93EF93FF938091B9008C7F46
S11305D0803899F028F4803651F0803741F03CC0DF
S11305E0883AE1F0883BD1F08039B1F506C0ECEBF4
S11305F0F0E080818068808334C08091BB00809368
S1130600440180914401843519F481E08093000110
S1130610ECEBF0E080818068808323C0809144010A
S1130620823599F4E0913E0181E08E0F80933E0182
S1130630F0E0E15CFE4F80818093BB0080913E013D
S1130640853030F010923E0103C08FEF8093BB00E1
S113065085EC8093BC0005C0ECEBF0E08081806900
S11306608083FF91EF918F910F900FBE0F901F9099
S113067018950E946D0280E30E9463020E94C300E9
S11306800E946703789481E291E00E9489020E94AB
S11306909602809100018130D1F741E060E070E87A
S11306A08DE694E40E947D032FEF8BE792E92150BD
S11306B080409040E1F700C0000041E060E070E05D
S11306C081EE93E40E947D0310920001E0CF8AB191
S11306D080668AB985B5877F85BD84B5826084BD0F
S11306E084B5816084BD85B5846085BD85B58D7F05
S11306F085BD85B5816085BD0895413039F424B543
S1130700206824BD24B52F7B24BD06C024B52068F1
S113071024BD24B5206424BD20E030E048EC52E43C
S11307200E949A0420E030EC4FE754E40E94A803AE
S113073020E030E04CE052E40E949A0420E030E0F3
S113074048EC52E40E94A8030E941A0467BD08956D
S11307500E94BC030C9460040E94590458F00E9447
S1130760520440F029F45F3F29F00C9449045111DC
S11307700C9494040C944F040E94710468F399231C
S1130780B1F3552391F3951B550BBB27AA27621789
S11307907307840738F09F5F5F4F220F331F441F96
S11307A0AA1FA9F335D00E2E3AF0E0E832D09150CA
S11307B05040E695001CCAF72BD0FE2F29D0660FB7
S11307C0771F881FBB1F261737074807AB07B0E8FA
S11307D009F0BB0B802DBF01FF2793585F4F3AF000
S11307E09E3F510578F00C9449040C9494045F3FA7
S11307F0E4F3983ED4F3869577956795B795F79586
S11308009F5FC9F7880F911D9695879597F908956D
S1130810E1E0660F771F881FBB1F62177307840709
S1130820BA0720F0621B730B840BBA0BEE1F88F718
S1130830E09508950E94790488F09F5798F0B92FA5
S11308409927B751B0F0E1F0660F771F881F991F01
S11308501AF0BA95C9F714C0B13091F00E9493040C
S1130860B1E008950C949304672F782F8827B85F1C
S113087039F0B93FCCF3869577956795B395D9F759
S11308803EF490958095709561957F4F8F4F9F4F63
S1130890089597F99F6780E870E060E008959FEFFE
S11308A080EC089500240A94161617061806090603
S11308B0089500240A9412161306140605060895D2
S11308C0092E0394000C11F4882352F0BB0F40F45A
S11308D0BF2B11F460FF04C06F5F7F4F8F4F9F4F9A
S11308E0089557FD9058440F551F59F05F3F71F01C
S11308F04795880F97FB991F61F09F3F79F0879583
S11309000895121613061406551FF2CF4695F1DF0B
S113091008C0161617061806991FF1CF869571059B
S1130920610508940895E894BB2766277727CB01CF
S113093097F908950E94AD040C9460040E94520437
S113094038F00E94590420F0952311F00C944904C6
S11309500C944F0411240C9494040E94710470F3B9
S1130960959FC1F3950F50E0551F629FF001729F50
S1130970BB27F00DB11D639FAA27F00DB11DAA1F5F
S1130980649F6627B00DA11D661F829F2227B00DAC
S1130990A11D621F739FB00DA11D621F839FA00D37
S11309A0611D221F749F3327A00D611D231F849F87
S11309B0600D211D822F762F6A2F11249F575040DE
S11309C09AF0F1F088234AF0EE0FFF1FBB1F661F59
S11309D0771F881F91505040A9F79E3F510580F022
S11309E00C9449040C9494045F3FE4F3983ED4F3CC
S11309F0869577956795B795F795E7959F5FC1F7C6
S1130A00FE2B880F911D9695879597F90895AEE072
S1130A10B0E0EDE0F5E00C94C8070D891E8986E08E
S1130A208C831A8309838FEF9FE79E838D83AE01A6
S1130A30475E5F4F6F89788DCE0101960E9429052C
S1130A40EF81F885E00FF11F10822E96E4E00C94FC
S1130A50E407ABE0B0E0EFE2F5E00C94BA076C0118
S1130A607B018A01FC0117821682838181FFCCC13C
S1130A70CE0101963C01F6019381F70193FD859126
S1130A8093FF81917F01882309F4BAC1853239F437
S1130A9093FD859193FF81917F01853229F4B601FD
S1130AA090E00E942007E7CF912C212C312CFFE10C
S1130AB0F315D8F08B3279F038F4803279F0833240
S1130AC0A1F4232D20611DC08D3261F0803369F4BF
S1130AD0232D216016C0832D8260382EE32DE4601F
S1130AE03E2E2AC0F32DF8601DC037FC2DC020ED2A
S1130AF0280F2A3040F08E32B9F436FC81C1232D00
S1130B002064322E19C036FE06C08AE0989E200D5D
S1130B101124922E11C0EAE02E9E200D1124222EC3
S1130B20F32DF0623F2E08C08C3621F4832D8068AB
S1130B30382E02C0883641F4F70193FD859193FF66
S1130B4081917F018111B3CF982F9F7D955493306C
S1130B5028F40C5F1F4F9FE399830DC0833631F057
S1130B60833771F0833509F059C021C0F8018081C1
S1130B7089830E5F1F4F88248394912C530113C0E3
S1130B802801F2E04F0E511CF801A080B18036FE1E
S1130B9003C0692D70E002C06FEF7FEFC5010E94B2
S1130BA015074C018201F32DFF773F2E16C0280153
S1130BB022E0420E511CF801A080B18036FE03C031
S1130BC0692D70E002C06FEF7FEFC5010E940A0734
S1130BD04C01F32DF0683F2E820133FC1BC0822DA3
S1130BE090E088169906B0F4B60180E290E00E9485
S1130BF020072A94F4CFF50137FC859137FE8191C3
S1130C005F01B60190E00E94200721102A9421E0A0
S1130C10821A91088114910471F7E8C0843611F0A6
S1130C20893641F5F80137FE07C060817181828100
S1130C3093810C5F1F4F08C060817181072E000CE7
S1130C40880B990B0E5F1F4FF32DFF763F2E97FFF6
S1130C5009C090958095709561957F4F8F4F9F4FF8
S1130C60F0683F2E2AE030E0A3010E945C07882E42
S1130C70861845C0853731F4232D2F7EB22E2AE005
S1130C8030E025C0932D997FB92E8F36C1F018F42A
S1130C90883579F0B5C0803719F0883721F0B0C0B5
S1130CA0E92FE061BE2EB4FE0DC0FB2DF460BF2E13
S1130CB009C034FE0AC0292F2660B22E06C028E0DF
S1130CC030E005C020E130E002C020E132E0F8016C
S1130CD0B7FE07C060817181828193810C5F1F4FD1
S1130CE006C06081718180E090E00E5F1F4FA30118
S1130CF00E945C07882E8618FB2DFF773F2E36FE58
S1130D000DC0232D2E7FA22E891458F434FE0BC05F
S1130D1032FC09C0832D8E7EA82E05C0B82CA32CCE
S1130D2003C0B82C01C0B92CA4FE0FC0FE01E80D0D
S1130D30F11D8081803321F49A2D997EA92E09C05A
S1130D40A2FE06C0B394B39404C08A2D867809F039
S1130D50B394A3FC11C0A0FE06C0B21488F4280CFE
S1130D60922C9B180EC0B21460F4B60180E290E09D
S1130D700E942007B394F7CFB21418F42B1802C0C2
S1130D80982C212CA4FE10C0B60180E390E00E94B0
S1130D902007A2FE17C0A1FC03C088E790E002C0B0
S1130DA088E590E0B6010CC08A2D867859F0A1FE42
S1130DB002C08BE201C080E2A7FC8DE2B60190E0A4
S1130DC00E942007891438F4B60180E390E00E9461
S1130DD020079A94F7CF8A94F301E80DF11D8081DE
S1130DE0B60190E00E9420078110F5CF222009F47B
S1130DF042CEB60180E290E00E9420072A94F6CF0A
S1130E00F6018681978102C08FEF9FEF2B96E2E176
S1130E100C94D607FC010590615070400110D8F77E
S1130E20809590958E0F9F1F0895FC01615070402E
S1130E3001900110D8F7809590958E0F9F1F08950B
S1130E400F931F93CF93DF93FB01238121FD03C0F5
S1130E508FEF9FEF2CC022FF16C04681578124815B
S1130E6035814217530744F4A081B1819D012F5F5E
S1130E703F4F318320838C93268137812F5F3F4FEF
S1130E803783268314C08B01EC01FB010084F185B8
S1130E90E02D0995892BE1F6D80116968D919C9148
S1130EA01797019617969C938E931697CE01DF9110
S1130EB0CF911F910F910895FA01AA27283051F17B
S1130EC0203181F1E8946F936E7F6E5F7F4F8F4F77
S1130ED09F4FAF4FB1E03ED0B4E03CD0670F781FD6
S1130EE0891F9A1FA11D680F791F8A1F911DA11DBB
S1130EF06A0F711D811D911DA11D20D009F46894F4
S1130F003F912AE0269F11243019305D3193DEF69B
S1130F10CF010895462F4770405D4193B3E00FD051
S1130F20C9F7F6CF462F4F70405D4A3318F0495D3C
S1130F3031FD4052419302D0A9F7EACFB4E0A6951F
S1130F409795879577956795BA95C9F70097610541
S1130F50710508959B01AC010A2E06945795479597
S1130F6037952795BA95C9F7620F731F841F951F8C
S1130F70A01D08952F923F924F925F926F927F929D
S1130F808F929F92AF92BF92CF92DF92EF92FF9295
S1130F900F931F93CF93DF93CDB7DEB7CA1BDB0B41
S1130FA00FB6F894DEBF0FBECDBF09942A883988E6
S1130FB048885F846E847D848C849B84AA84B984ED
S1130FC0C884DF80EE80FD800C811B81AA81B981F9
S1130FD0CE0FD11D0FB6F894DEBF0FBECDBFED010D
S1090FE00895F894FFCF10
S1130FE6015461726A657461206465746563746131
S1130FF66461210D0A005549443A200025303258CF
S1131006000D0A4573636C61766F20493243202DC7
S1111016204E4643206C6973746F210D0A004E
S9030000FC
