S01400004573636C61766F2D5065736F2E737265637F
S11300000C94B1000C94CE000C94CE000C94CE0051
S11300100C94CE000C94CE000C94CE000C94CE0024
S11300200C94CE000C94CE000C94CE000C94CE0014
S11300300C94CE000C94CE000C94CE000C94CE0004
S11300400C94CE000C94CE000C94CE000C94CE00F4
S11300500C94CE000C94CE000C94CE000C94CE00E4
S11300600C943F020C94CE0000407A10F35A00A086
S1130070724E18090010A5D4E80000E8764817006D
S113008000E40B54020000CA9A3B000000E1F505AD
S1130090000080969800000040420F000000A086F7
S11300A001000000102700000000E8030000000029
S11300B06400000000000A000000000001000000CD
S11300C000002C76D888DC674F0823DFC1DFAE59E7
S11300D0E1B1B796E5E3E453C63AE651997696E87A
S11300E0E6C28426EB898C9B62ED407C6FFCEFBCFE
S11300F09C9F40F2BAA56FA5F490055A2AF75C9329
S11301006B6CF9676DC11BFCE0E40D47FEF520E65E
S1130110B500D0ED902E0300943577050080841E41
S1130120080000204E0A000000C80C333333330F9C
S1130130986E12831141EF8D2114893BE65516CF39
S1130140FEE6DB18D1844B381BF77C1D901DA4BB45
S1130150E424203284725E228100C9F124ECA1E5FA
S11301603D2711241FBECFEFD8E0DEBFCDBF11E085
S1130170A0E0B1E0EAEDFFE002C005900D92A034EA
S1130180B107D9F721E0A0E4B1E001C01D92AA347F
S1130190B207E1F70E948C010C94EB070C94000069
S11301A087E690E09093C5008093C40088E0809334
S11301B0C10086E08093C20008959091C00095FF2D
S11301C0FCCF8093C6000895CF93DF93EC0103C066
S11301D021960E94DD0088818111FACFDF91CF91B1
S11301E008958AB180648AB983E884BD8BE085BDB3
S11301F017BC08959FE1899F90011124A3E8BDE2F3
S11302000E94530596958795929582958F708927BC
S11302109F708927815E87BD0895880F8093BA00F7
S113022085EC8093BC00089580E091E00E94E40096
S11302301092420110924301109244011092450120
S113024020E04CC01999FECF90E040E050E0BA01A4
S113025019C085B1816085B935E03A95F1F70000A0
S1130260440F551F661F771F85B18E7F85B985E0C2
S11302708A95F1F70000199B04C04F5F5F4F6F4FE1
S11302807F4F9F5F983128F385B1816085B995E0F0
S11302909A95F1F7000085B18E7F85B967FD7F6F70
S11302A08091420190914301A0914401B091450194
S11302B0480F591F6A1F7B1F40934201509343010B
S11302C060934401709345013FEF83EF91E0315017
S11302D080409040E1F700C000002F5F243108F413
S11302E0B1CF60914201709143018091440190919A
S11302F0450124E130E040E050E00E9434052093C1
S113030042013093430140934401509345018AE0F4
S113031091E00E94E4000895CF93DF93CDB7DEB758
S11303202C970FB6F894DEBF0FBECDBF84B18D7F7E
S113033084B984B1816084B985B18E7F85B90E9406
S1130340D0000E94F1008FE091E00E94E4000E943E
S1130350140180E20E940D0178941999FECF90E077
S113036040E050E0BA0119C085B1816085B905E06B
S11303700A95F1F70000440F551F661F771F85B1DA
S11303808E7F85B915E01A95F1F70000199B04C01A
S11303904F5F5F4F6F4F7F4F9F5F983128F385B159
S11303A0816085B925E02A95F1F7000085B18E7F3B
S11303B085B967FD7F6F8091420190914301A091BF
S11303C04401B09145018A019B01081B190B2A0BBA
S11303D03B0BC901B8010E94F50320E030E245E877
S11303E054E40E9452036B017C0120E030E0A90137
S11303F00E944D0388231CF4C12CD12C7601C70123
S1130400B6010E94C403162F70E080E090E00E94C1
S1130410F5039B01AC01C701B6010E94E00220E094
S113042030E048EC52E40E94A50420E030E040E0D3
S11304305FE30E94E1020E94C403109348016093A9
S113044047018E010F5F1F4F22E045E0C701B6014F
S11304500E94620584E291E00E94E400C8010E94C7
S1130460E4008BE291E00E94E4001FEF27E833E10F
S1130470115020403040E1F700C000006ECF1F92C1
S11304800F920FB60F9211242F933F934F935F93C4
S11304906F937F938F939F93AF93BF93EF93FF9348
S11304A08091B900887F8039F1F040F48037A9F059
S11304B08038C9F0803609F06FC00FC0883B09F45A
S11304C050C020F4883A09F44CC066C0803C09F45A
S11304D05DC0883C09F45AC05FC01092410185ECAC
S11304E08093BC005CC08091410181110CC080915B
S11304F0BB0080934901809149018E3449F581E024
S11305008093400125C080914001882309F18091A6
S1130510BB00809346011092400180E391E00E9469
S1130520E400809146010E94DD0087E091E00E9492
S1130530E40084EB0E94FA002FEF8BE792E921504C
S113054080409040E1F700C000008AE50E94FA0074
S1130550809141018F5F8093410185EC8093BC00C1
S11305601EC080914101811103C08091480102C0E5
S1130570809147018093BB00809141018F5F81701E
S11305808093410185EC8093BC0009C01092410125
S113059085EC8093BC0003C085EC8093BC00FF9184
S11305A0EF91BF91AF919F918F917F916F915F91E7
S11305B04F913F912F910F900FBE0F901F90189560
S11305C05058BB27AA270E94F8020C946B040E947F
S11305D05D0438F00E94640420F039F49F3F19F45C
S11305E026F40C945A040EF4E095E7FB0C9454049E
S11305F0E92F0E947C0458F3BA1762077307840733
S1130600950720F079F4A6F50C949E040EF4E09579
S11306100B2EBA2FA02D0B01B90190010C01CA01B8
S1130620A0011124FF27591B99F0593F50F4503E63
S113063068F11A16F040A22F232F342F4427585F55
S1130640F3CF469537952795A795F0405395C9F76D
S11306507EF41F16BA0B620B730B840BBAF0915025
S1130660A1F0FF0FBB1F661F771F881FC2F70EC0C4
S1130670BA0F621F731F841F48F487957795679597
S1130680B795F7959E3F08F0B0CF9395880F08F083
S11306909927EE0F9795879508950E94300408F4E2
S11306A081E008950E9466030C946B040E94640424
S11306B058F00E945D0440F029F45F3F29F00C9447
S11306C0540451110C949F040C945A040E947C0409
S11306D068F39923B1F3552391F3951B550BBB276D
S11306E0AA2762177307840738F09F5F5F4F220FB2
S11306F0331F441FAA1FA9F335D00E2E3AF0E0E8A9
S113070032D091505040E695001CCAF72BD0FE2FF2
S113071029D0660F771F881FBB1F26173707480786
S1130720AB07B0E809F0BB0B802DBF01FF2793583E
S11307305F4F3AF09E3F510578F00C9454040C94AA
S11307409F045F3FE4F3983ED4F3869577956795CD
S1130750B795F7959F5FC9F7880F911D9695879573
S113076097F90895E1E0660F771F881FBB1F621792
S113077073078407BA0720F0621B730B840BBA0B50
S1130780EE1F88F7E09508950E94840488F09F572F
S113079098F0B92F9927B751B0F0E1F0660F771FA1
S11307A0881F991F1AF0BA95C9F714C0B13091F097
S11307B00E949E04B1E008950C949E04672F782F44
S11307C08827B85F39F0B93FCCF38695779567955C
S11307D0B395D9F73EF490958095709561957F4FC8
S11307E08F4F9F4F0895E89409C097FB3EF490956E
S11307F08095709561957F4F8F4F9F4F9923A9F0F6
S1130800F92F96E9BB279395F69587957795679584
S1130810B795F111F8CFFAF4BB0F11F460FF1BC0C8
S11308206F5F7F4F8F4F9F4F16C0882311F096E95B
S113083011C0772321F09EE8872F762F05C0662309
S113084071F096E8862F70E060E02AF09A95660FC2
S1130850771F881FDAF7880F9695879597F908957B
S1130860990F0008550FAA0BE0E8FEEF16161706BD
S1130870E807F907C0F012161306E407F50798F025
S1130880621B730B840B950B39F40A2661F0232B3E
S1130890242B252B21F408950A2609F4A140A695BA
S11308A08FEF811D811D089597F99F6780E870E09F
S11308B060E008959FEF80EC089500240A941616D2
S11308C0170618060906089500240A94121613063A
S11308D0140605060895092E0394000C11F48823C8
S11308E052F0BB0F40F4BF2B11F460FF04C06F5FE4
S11308F07F4F8F4F9F4F089557FD9058440F551FBA
S113090059F05F3F71F04795880F97FB991F61F08D
S11309109F3F79F087950895121613061406551F04
S1130920F2CF4695F1DF08C0161617061806991F70
S1130930F1CF86957105610508940895E894BB2765
S113094066277727CB0197F908950E94B8040C9481
S11309506B040E945D0438F00E94640420F0952327
S113096011F00C9454040C945A0411240C949F0414
S11309700E947C0470F3959FC1F3950F50E0551FBE
S1130980629FF001729FBB27F00DB11D639FAA27E0
S1130990F00DB11DAA1F649F6627B00DA11D661F2F
S11309A0829F2227B00DA11D621F739FB00DA11D50
S11309B0621F839FA00D611D221F749F3327A00D0A
S11309C0611D231F849F600D211D822F762F6A2FA6
S11309D011249F5750409AF0F1F088234AF0EE0F0B
S11309E0FF1FBB1F661F771F881F91505040A9F738
S11309F09E3F510580F00C9454040C949F045F3F77
S1130A00E4F3983ED4F3869577956795B795F79573
S1130A10E7959F5FC1F7FE2B880F911D96958795EB
S1130A2097F90895A1E21A2EAA1BBB1BFD010DC064
S1130A30AA1FBB1FEE1FFF1FA217B307E407F5078A
S1130A4020F0A21BB30BE40BF50B661F771F881F66
S1130A50991F1A9469F760957095809590959B01FC
S1130A60AC01BD01CF010895052E97FB1EF400943F
S1130A700E944B0557FD07D00E94120507FC03D0C6
S1130A804EF40C944B0550954095309521953F4F6D
S1130A904F4F5F4F089590958095709561957F4F66
S1130AA08F4F9F4F0895A29FB001B39FC001A39F92
S1130AB0700D811D1124911DB29F700D811D112493
S1130AC0911D0895EF920F931F93CF93DF93E80145
S1130AD047FD02C034E001C034E1042E000C550B84
S1130AE057FF03C0519541955109E32E022F242F3E
S1130AF0AE010E948205CE01DF91CF911F910F912B
S1130B00EF900895A9E0B0E0E8E8F5E00C94BA07A6
S1130B106A01122FB02E2BE3201720F0FF24F39448
S1130B20F00E02C02CE3F22E0F2D27E0AE014F5F32
S1130B305F4F0E94DC06BC014981842F897081309B
S1130B4031F0E1FC06C0E0FE06C090E205C09DE283
S1130B5003C09BE201C090E05E2D507143FF3CC096
S1130B60911102C083E001C084E0811718F4212FA1
S1130B70281B01C020E051110BC0F601822F30E286
S1130B80882319F031938150FBCFC20ED11C20E091
S1130B90992329F0D6019C93F60131966F01C60181
S1130BA00396E2FE0AC03EE4D6013C9341E411966A
S1130BB04C93119712963C9306C03EE6F60130839F
S1130BC041E641833283FC01322F40E2332309F4AE
S1130BD042C041933150FACF42FF44C0911102C048
S1130BE083E001C084E0811718F4212F281B01C081
S1130BF020E051110BC0F601822F30E2882319F056
S1130C0031938150FBCFC20ED11C20E0992329F0EF
S1130C10D6019C93F60131966F01C6010396E2FE5C
S1130C200BC039E4D6013C933EE411963C931197F2
S1130C3036E412963C9307C039E6F60130833EE66B
S1130C40318336E63283FC01322F40E2332319F03C
S1130C5041933150FBCFFC01E20FF11D10828EEF66
S1130C609FEFA6C021E030E0911102C020E030E007
S1130C70161617061CF4FB01319602C0E1E0F0E001
S1130C802E0F3F1FBB2021F0EB2DF0E0319602C068
S1130C90E0E0F0E02E0F3F1FE12FF0E02E173F07BA
S1130CA01CF4121B212F01C020E08E2D887159F4F1
S1130CB0F601822F30E2882319F031938150FBCF63
S1130CC0C20ED11C20E0992329F0D6019C93F60191
S1130CD031966F0151110BC0F601822F90E38823E6
S1130CE019F091938150FBCFC20ED11C20E00F2D3F
S1130CF0060F9A81342F307144FF03C0913309F4F5
S1130D000150101624F4093018F008E001C001E085
S1130D10AB0177FF02C040E050E0FB01E41BF50BA0
S1130D20A1E0B0E0AC0FBD1FEA0FFB1F8EE2A82EBE
S1130D304B01801A91080B2D10E0119501951109B2
S1130D404F3FBFEF5B0721F4D601AC9211966D01C2
S1130D50641775072CF08416950614F4818101C07C
S1130D6080E3415051093196D60111967D01401717
S1130D70510724F0D6018C936701E2CF64177507FD
S1130D8039F4963320F4953319F4311101C081E319
S1130D90F6018083F701822F90E2882319F0919362
S1130DA08150FBCFF701E20FF11D108280E090E04B
S1130DB02996ECE00C94D607283008F027E0332776
S1130DC0DA01990F311D87FD916000966105710567
S1130DD039F432602E5F3D9330E32A95E1F70895AC
S1130DE09F3F30F080387105610509F03C5F3C5F3E
S1130DF03D93913008F08068911DDF93CF931F934A
S1130E000F93FF92EF92192F987F9695E92F96955D
S1130E109695E90FFF27EE53FF4F99273327EE24CA
S1130E20FF24A701E70105900894079428F4360FDE
S1130E30E71EF81E491F511D660F771F881F991F53
S1130E400694A1F70590079428F4E70EF81E491FAD
S1130E50561FC11D770F881F991F661F0694A1F79F
S1130E600590079428F4F80E491F561FC71FD11D7B
S1130E70880F991F661F771F0694A1F705900794A2
S1130E8020F4490F561FC71FD81F990F661F771FDD
S1130E90881F0694A9F784911095177041F0D69590
S1130EA0C79557954795F794E7941A95C1F7E8E6DF
S1130EB0F0E06894159015913591659195910590A0
S1130EC07FE27395E118F10A430B560BC90BD00965
S1130ED0C0F7E10CF11E431F561FC91FD01D7EF43D
S1130EE0703311F48A95E6CFE894015030F0080F7E
S1130EF00AF40027021708F4202F2395022F7A33CF
S1130F0028F079E37D932A95E9F710C07D932A951B
S1130F1089F6069497956795379517951794E11870
S1130F20F10A430B560BC90BD00998F023957E9117
S1130F3073957A3308F070E37C932013B8F77E91AD
S1130F4070617D9330F0839571E37D9370E32A950E
S1130F50E1F71124EF90FF900F911F91CF91DF9152
S1130F60992787FD909508952F923F924F925F9213
S1130F706F927F928F929F92AF92BF92CF92DF92A5
S1130F80EF92FF920F931F93CF93DF93CDB7DEB70A
S1130F90CA1BDB0B0FB6F894DEBF0FBECDBF09949E
S1130FA02A88398848885F846E847D848C849B84F5
S1130FB0AA84B984C884DF80EE80FD800C811B8103
S1130FC0AA81B981CE0FD11D0FB6F894DEBF0FBE32
S10D0FD0CDBFED010895F894FFCFA2
S1130FDA546172612E2E2E0D0A004F4B0D0A0045E4
S1130FEA73636C61766F205065736F206C697374D8
S1130FFA6F0D0A005065736F3A200020670D0A00CE
S113100A4E464320726563696269646F3A20000040
S9030000FC
