S01400004573636C61766F2D5065736F2E737265637F
S11300000C9434000C9451000C9451000C94510045
S11300100C9451000C9451000C9451000C94510018
S11300200C9451000C9451000C9451000C94510008
S11300300C9451000C9451000C9451000C945100F8
S11300400C9451000C9451000C9451000C945100E8
S11300500C9451000C9451000C9451000C945100D8
S11300600C94DD000C94510011241FBECFEFD8E096
S1130070DEBFCDBF11E0A0E0B1E0EEE2F9E002C0E6
S113008005900D92A633B107D9F721E0A6E3B1E0BC
S113009001C01D92AC33B207E1F70E9460010C94D9
S11300A095040C94000097B19F7C97B9880F8093B6
S11300B0BA0085E48093BC0008958AB182608AB94D
S11300C08AB18E7F8AB91092C00088E98093C100FA
S11300D086E08093C20087E690E09093C500809309
S11300E0C40008959091C00095FFFCCF8093C60092
S11300F00895CF93DF93EC0103C00E947200219610
S113010088818111FACFDF91CF9108958AB18B7FD5
S11301108AB98AB188608AB98BB1877F8BB908950F
S11301204A99FECF90E040E050E0BA0119C08BB18B
S113013088608BB985E08A95F1F70000440F551F5C
S1130140661F771F8BB1877F8BB985E08A95F1F79E
S113015000004A9B04C04F5F5F4F6F4F7F4F9F5F0C
S1130160983128F38BB188608BB985E08A95F1F7D3
S113017000008BB1877F8BB985E08A95F1F7000089
S113018067FD7F6FCB01BA01089585B1816085B9A0
S113019085B18D7F85B9089585B1826085B985B1B2
S11301A08E7F85B9089585B18C7F85B9089584B112
S11301B0836084B90E94D30008951F920F920FB6F2
S11301C00F9211242F933F934F935F936F937F93D9
S11301D08F939F93AF93BF93EF93FF938091B90055
S11301E0887F803879F018F4803631F053C0883A2B
S11301F039F1883B29F14EC0ECEBF0E08081806856
S113020080834DC08091BB0080933B0180913B0172
S1130210853519F40E94C5000DC080913B018434DA
S113022019F40E94CC0006C080913B01833511F47F
S11302300E94D300ECEBF0E08081806880832FC0C3
S113024080913601811116C0809137019091380157
S1130250A0913901B0913A01892F9A2FAB2FBB2776
S1130260A7FDBA958093BB00809136018F5F809380
S113027036010CC08091370190913801A091390169
S1130280B0913A018093BB001092360185EC8093C3
S1130290BC0005C0ECEBF0E0808180698083FF91B5
S11302A0EF91BF91AF919F918F917F916F915F91EA
S11302B04F913F912F910F900FBE0F901F90189563
S11302C0CF93DF93CDB7DEB764970FB6F894DEBF54
S11302D00FBECDBF0E945D000E9486000E94D70021
S11302E080E20E945300789480E091E00E947900BB
S11302F00E94900060933701709338018093390114
S113030090933A018091370190913801A09139017D
S1130310B0913A01BF93AF939F938F9389E291E099
S11303209F938F938E010F5F1F4F1F930F930E9414
S1130330AB01C8010E9479002FEF89E698E12150B2
S113034080409040E1F700C000000FB6F894DEBF93
S11303500FBECDBFCDCFAEE0B0E0E1EBF1E00C9449
S11303606C040D891E8986E08C831A8309838FEFC0
S11303709FE79E838D83AE01475E5F4F6F89788DC3
S1130380CE0101960E94CD01EF81F885E00FF11FA7
S113039010822E96E4E00C948804ABE0B0E0E3ED28
S11303A0F1E00C945E046C017B018A01FC0117826C
S11303B01682838181FFCCC1CE0101963C01F601F6
S11303C09381F70193FD859193FF81917F018823A8
S11303D009F4BAC1853239F493FD859193FF819173
S11303E07F01853229F4B60190E00E94C403E7CF6F
S11303F0912C212C312CFFE1F315D8F08B3279F0BC
S113040038F4803279F08332A1F4232D20611DC0A9
S11304108D3261F0803369F4232D216016C0832D61
S11304208260382EE32DE4603E2E2AC0F32DF8605E
S11304301DC037FC2DC020ED280F2A3040F08E322D
S1130440B9F436FC81C1232D2064322E19C036FE46
S113045006C08AE0989E200D1124922E11C0EAE075
S11304602E9E200D1124222EF32DF0623F2E08C063
S11304708C3621F4832D8068382E02C0883641F4EE
S1130480F70193FD859193FF81917F018111B3CF92
S1130490982F9F7D9554933028F40C5F1F4F9FE352
S11304A099830DC0833631F0833771F0833509F0B9
S11304B059C021C0F801808189830E5F1F4F8824B1
S11304C08394912C530113C02801F2E04F0E511C68
S11304D0F801A080B18036FE03C0692D70E002C02F
S11304E06FEF7FEFC5010E94B9034C018201F32D28
S11304F0FF773F2E16C0280122E0420E511CF8015E
S1130500A080B18036FE03C0692D70E002C06FEF99
S11305107FEFC5010E94AE034C01F32DF0683F2E1E
S1130520820133FC1BC0822D90E088169906B0F43A
S1130530B60180E290E00E94C4032A94F4CFF5014E
S113054037FC859137FE81915F01B60190E00E94EE
S1130550C40321102A9421E0821A91088114910481
S113056071F7E8C0843611F0893641F5F80137FE99
S113057007C060817181828193810C5F1F4F08C025
S113058060817181072E000C880B990B0E5F1F4F41
S1130590F32DFF763F2E97FF09C0909580957095B7
S11305A061957F4F8F4F9F4FF0683F2E2AE030E0D8
S11305B0A3010E940004882E861845C0853731F4B3
S11305C0232D2F7EB22E2AE030E025C0932D997F73
S11305D0B92E8F36C1F018F4883579F0B5C080375C
S11305E019F0883721F0B0C0E92FE061BE2EB4FEC7
S11305F00DC0FB2DF460BF2E09C034FE0AC0292FA4
S11306002660B22E06C028E030E005C020E130E0CC
S113061002C020E132E0F801B7FE07C060817181B9
S1130620828193810C5F1F4F06C06081718180E0DD
S113063090E00E5F1F4FA3010E940004882E8618CD
S1130640FB2DFF773F2E36FE0DC0232D2E7FA22ECD
S1130650891458F434FE0BC032FC09C0832D8E7EFD
S1130660A82E05C0B82CA32C03C0B82C01C0B92CEB
S1130670A4FE0FC0FE01E80DF11D8081803321F43A
S11306809A2D997EA92E09C0A2FE06C0B394B394F4
S113069004C08A2D867809F0B394A3FC11C0A0FE8F
S11306A006C0B21488F4280C922C9B180EC0B21405
S11306B060F4B60180E290E00E94C403B394F7CFE3
S11306C0B21418F42B1802C0982C212CA4FE10C0CC
S11306D0B60180E390E00E94C403A2FE17C0A1FC0F
S11306E003C088E790E002C088E590E0B6010CC042
S11306F08A2D867859F0A1FE02C08BE201C080E207
S1130700A7FC8DE2B60190E00E94C403891438F47A
S1130710B60180E390E00E94C4039A94F7CF8A94D0
S1130720F301E80DF11D8081B60190E00E94C4033D
S11307308110F5CF222009F442CEB60180E290E088
S11307400E94C4032A94F6CFF6018681978102C0E1
S11307508FEF9FEF2B96E2E10C947A04FC01059055
S1130760615070400110D8F7809590958E0F9F1FAF
S11307700895FC016150704001900110D8F78095F4
S113078090958E0F9F1F08950F931F93CF93DF9320
S1130790FB01238121FD03C08FEF9FEF2CC022FFBB
S11307A016C046815781248135814217530744F48A
S11307B0A081B1819D012F5F3F4F318320838C93B2
S11307C0268137812F5F3F4F3783268314C08B01E7
S11307D0EC01FB010084F185E02D0995892BE1F6FC
S11307E0D80116968D919C911797019617969C9314
S11307F08E931697CE01DF91CF911F910F9108959B
S1130800FA01AA27283051F1203181F1E8946F933D
S11308106E7F6E5F7F4F8F4F9F4FAF4FB1E03ED0E3
S1130820B4E03CD0670F781F891F9A1FA11D680F81
S1130830791F8A1F911DA11D6A0F711D811D911DB4
S1130840A11D20D009F468943F912AE0269F112429
S11308503019305D3193DEF6CF010895462F47708D
S1130860405D4193B3E00FD0C9F7F6CF462F4F70E8
S1130870405D4A3318F0495D31FD4052419302D046
S1130880A9F7EACFB4E0A6959795879577956795EC
S1130890BA95C9F700976105710508959B01AC01EC
S11308A00A2E06945795479537952795BA95C9F713
S11308B0620F731F841F951FA01D08952F923F92EE
S11308C04F925F926F927F928F929F92AF92BF925C
S11308D0CF92DF92EF92FF920F931F93CF93DF9308
S11308E0CDB7DEB7CA1BDB0B0FB6F894DEBF0FBE65
S11308F0CDBF09942A88398848885F846E847D84B2
S11309008C849B84AA84B984C884DF80EE80FD80B3
S11309100C811B81AA81B981CE0FD11D0FB6F89429
S1110920DEBF0FBECDBFED010895F894FFCFEA
S113092E0D0A4573636C61766F20493243202D2086
S113093E5065736F202B204D6F746F7220444320CB
S113094E6C6973746F210D0A005065736F3A20251C
S109095E6C640D0A0000A8
S9030000FC
